{
  "_format": "hh3-artifact-1",
  "contractName": "SPARKiNFT",
  "sourceName": "contracts/SPARKiNFT.sol",
  "abi": [
    {
      "inputs": [
        {
          "internalType": "address",
          "name": "_verifier",
          "type": "address"
        }
      ],
      "stateMutability": "nonpayable",
      "type": "constructor"
    },
    {
      "inputs": [
        {
          "internalType": "address",
          "name": "sender",
          "type": "address"
        },
        {
          "internalType": "uint256",
          "name": "tokenId",
          "type": "uint256"
        },
        {
          "internalType": "address",
          "name": "owner",
          "type": "address"
        }
      ],
      "name": "ERC721IncorrectOwner",
      "type": "error"
    },
    {
      "inputs": [
        {
          "internalType": "address",
          "name": "operator",
          "type": "address"
        },
        {
          "internalType": "uint256",
          "name": "tokenId",
          "type": "uint256"
        }
      ],
      "name": "ERC721InsufficientApproval",
      "type": "error"
    },
    {
      "inputs": [
        {
          "internalType": "address",
          "name": "approver",
          "type": "address"
        }
      ],
      "name": "ERC721InvalidApprover",
      "type": "error"
    },
    {
      "inputs": [
        {
          "internalType": "address",
          "name": "operator",
          "type": "address"
        }
      ],
      "name": "ERC721InvalidOperator",
      "type": "error"
    },
    {
      "inputs": [
        {
          "internalType": "address",
          "name": "owner",
          "type": "address"
        }
      ],
      "name": "ERC721InvalidOwner",
      "type": "error"
    },
    {
      "inputs": [
        {
          "internalType": "address",
          "name": "receiver",
          "type": "address"
        }
      ],
      "name": "ERC721InvalidReceiver",
      "type": "error"
    },
    {
      "inputs": [
        {
          "internalType": "address",
          "name": "sender",
          "type": "address"
        }
      ],
      "name": "ERC721InvalidSender",
      "type": "error"
    },
    {
      "inputs": [
        {
          "internalType": "uint256",
          "name": "tokenId",
          "type": "uint256"
        }
      ],
      "name": "ERC721NonexistentToken",
      "type": "error"
    },
    {
      "inputs": [
        {
          "internalType": "address",
          "name": "owner",
          "type": "address"
        }
      ],
      "name": "OwnableInvalidOwner",
      "type": "error"
    },
    {
      "inputs": [
        {
          "internalType": "address",
          "name": "account",
          "type": "address"
        }
      ],
      "name": "OwnableUnauthorizedAccount",
      "type": "error"
    },
    {
      "anonymous": false,
      "inputs": [
        {
          "indexed": true,
          "internalType": "uint256",
          "name": "tokenId",
          "type": "uint256"
        },
        {
          "indexed": true,
          "internalType": "address",
          "name": "owner",
          "type": "address"
        },
        {
          "indexed": false,
          "internalType": "string",
          "name": "botId",
          "type": "string"
        }
      ],
      "name": "AgentMinted",
      "type": "event"
    },
    {
      "anonymous": false,
      "inputs": [
        {
          "indexed": true,
          "internalType": "uint256",
          "name": "tokenId",
          "type": "uint256"
        },
        {
          "indexed": false,
          "internalType": "string",
          "name": "domainTags",
          "type": "string"
        },
        {
          "indexed": false,
          "internalType": "string",
          "name": "serviceOfferings",
          "type": "string"
        }
      ],
      "name": "AgentProfileUpdated",
      "type": "event"
    },
    {
      "anonymous": false,
      "inputs": [
        {
          "indexed": true,
          "internalType": "address",
          "name": "owner",
          "type": "address"
        },
        {
          "indexed": true,
          "internalType": "address",
          "name": "approved",
          "type": "address"
        },
        {
          "indexed": true,
          "internalType": "uint256",
          "name": "tokenId",
          "type": "uint256"
        }
      ],
      "name": "Approval",
      "type": "event"
    },
    {
      "anonymous": false,
      "inputs": [
        {
          "indexed": true,
          "internalType": "address",
          "name": "owner",
          "type": "address"
        },
        {
          "indexed": true,
          "internalType": "address",
          "name": "operator",
          "type": "address"
        },
        {
          "indexed": false,
          "internalType": "bool",
          "name": "approved",
          "type": "bool"
        }
      ],
      "name": "ApprovalForAll",
      "type": "event"
    },
    {
      "anonymous": false,
      "inputs": [
        {
          "indexed": true,
          "internalType": "address",
          "name": "from",
          "type": "address"
        },
        {
          "indexed": true,
          "internalType": "address",
          "name": "to",
          "type": "address"
        },
        {
          "indexed": true,
          "internalType": "uint256",
          "name": "tokenId",
          "type": "uint256"
        }
      ],
      "name": "Authorization",
      "type": "event"
    },
    {
      "anonymous": false,
      "inputs": [
        {
          "indexed": true,
          "internalType": "address",
          "name": "from",
          "type": "address"
        },
        {
          "indexed": true,
          "internalType": "address",
          "name": "to",
          "type": "address"
        },
        {
          "indexed": true,
          "internalType": "uint256",
          "name": "tokenId",
          "type": "uint256"
        }
      ],
      "name": "AuthorizationRevoked",
      "type": "event"
    },
    {
      "anonymous": false,
      "inputs": [
        {
          "indexed": true,
          "internalType": "uint256",
          "name": "tokenId",
          "type": "uint256"
        },
        {
          "indexed": false,
          "internalType": "uint256",
          "name": "newCount",
          "type": "uint256"
        }
      ],
      "name": "ContributionRecorded",
      "type": "event"
    },
    {
      "anonymous": false,
      "inputs": [
        {
          "indexed": true,
          "internalType": "address",
          "name": "user",
          "type": "address"
        },
        {
          "indexed": true,
          "internalType": "address",
          "name": "assistant",
          "type": "address"
        }
      ],
      "name": "DelegateAccess",
      "type": "event"
    },
    {
      "anonymous": false,
      "inputs": [
        {
          "indexed": true,
          "internalType": "address",
          "name": "previousOwner",
          "type": "address"
        },
        {
          "indexed": true,
          "internalType": "address",
          "name": "newOwner",
          "type": "address"
        }
      ],
      "name": "OwnershipTransferred",
      "type": "event"
    },
    {
      "anonymous": false,
      "inputs": [
        {
          "indexed": true,
          "internalType": "address",
          "name": "to",
          "type": "address"
        },
        {
          "indexed": true,
          "internalType": "uint256",
          "name": "tokenId",
          "type": "uint256"
        },
        {
          "indexed": false,
          "internalType": "bytes[]",
          "name": "sealedKeys",
          "type": "bytes[]"
        }
      ],
      "name": "PublishedSealedKey",
      "type": "event"
    },
    {
      "anonymous": false,
      "inputs": [
        {
          "indexed": true,
          "internalType": "address",
          "name": "from",
          "type": "address"
        },
        {
          "indexed": true,
          "internalType": "address",
          "name": "to",
          "type": "address"
        },
        {
          "indexed": true,
          "internalType": "uint256",
          "name": "tokenId",
          "type": "uint256"
        }
      ],
      "name": "Transfer",
      "type": "event"
    },
    {
      "anonymous": false,
      "inputs": [
        {
          "indexed": true,
          "internalType": "uint256",
          "name": "tokenId",
          "type": "uint256"
        },
        {
          "components": [
            {
              "internalType": "string",
              "name": "dataDescription",
              "type": "string"
            },
            {
              "internalType": "bytes32",
              "name": "dataHash",
              "type": "bytes32"
            }
          ],
          "indexed": false,
          "internalType": "struct IntelligentData[]",
          "name": "oldDatas",
          "type": "tuple[]"
        },
        {
          "components": [
            {
              "internalType": "string",
              "name": "dataDescription",
              "type": "string"
            },
            {
              "internalType": "bytes32",
              "name": "dataHash",
              "type": "bytes32"
            }
          ],
          "indexed": false,
          "internalType": "struct IntelligentData[]",
          "name": "newDatas",
          "type": "tuple[]"
        }
      ],
      "name": "Updated",
      "type": "event"
    },
    {
      "inputs": [
        {
          "internalType": "address",
          "name": "to",
          "type": "address"
        },
        {
          "internalType": "uint256",
          "name": "tokenId",
          "type": "uint256"
        }
      ],
      "name": "approve",
      "outputs": [],
      "stateMutability": "nonpayable",
      "type": "function"
    },
    {
      "inputs": [
        {
          "internalType": "uint256",
          "name": "tokenId",
          "type": "uint256"
        },
        {
          "internalType": "address",
          "name": "user",
          "type": "address"
        }
      ],
      "name": "authorizeUsage",
      "outputs": [],
      "stateMutability": "nonpayable",
      "type": "function"
    },
    {
      "inputs": [
        {
          "internalType": "uint256",
          "name": "tokenId",
          "type": "uint256"
        }
      ],
      "name": "authorizedUsersOf",
      "outputs": [
        {
          "internalType": "address[]",
          "name": "",
          "type": "address[]"
        }
      ],
      "stateMutability": "view",
      "type": "function"
    },
    {
      "inputs": [
        {
          "internalType": "address",
          "name": "owner",
          "type": "address"
        }
      ],
      "name": "balanceOf",
      "outputs": [
        {
          "internalType": "uint256",
          "name": "",
          "type": "uint256"
        }
      ],
      "stateMutability": "view",
      "type": "function"
    },
    {
      "inputs": [
        {
          "internalType": "address",
          "name": "assistant",
          "type": "address"
        }
      ],
      "name": "delegateAccess",
      "outputs": [],
      "stateMutability": "nonpayable",
      "type": "function"
    },
    {
      "inputs": [
        {
          "internalType": "uint256",
          "name": "tokenId",
          "type": "uint256"
        }
      ],
      "name": "getAgentProfile",
      "outputs": [
        {
          "components": [
            {
              "internalType": "string",
              "name": "botId",
              "type": "string"
            },
            {
              "internalType": "string",
              "name": "domainTags",
              "type": "string"
            },
            {
              "internalType": "string",
              "name": "serviceOfferings",
              "type": "string"
            },
            {
              "internalType": "uint256",
              "name": "reputationScore",
              "type": "uint256"
            },
            {
              "internalType": "uint256",
              "name": "contributionCount",
              "type": "uint256"
            },
            {
              "internalType": "uint256",
              "name": "createdAt",
              "type": "uint256"
            },
            {
              "internalType": "uint256",
              "name": "updatedAt",
              "type": "uint256"
            }
          ],
          "internalType": "struct SPARKiNFT.AgentProfile",
          "name": "",
          "type": "tuple"
        }
      ],
      "stateMutability": "view",
      "type": "function"
    },
    {
      "inputs": [
        {
          "internalType": "uint256",
          "name": "tokenId",
          "type": "uint256"
        }
      ],
      "name": "getApproved",
      "outputs": [
        {
          "internalType": "address",
          "name": "",
          "type": "address"
        }
      ],
      "stateMutability": "view",
      "type": "function"
    },
    {
      "inputs": [
        {
          "internalType": "address",
          "name": "user",
          "type": "address"
        }
      ],
      "name": "getDelegateAccess",
      "outputs": [
        {
          "internalType": "address",
          "name": "",
          "type": "address"
        }
      ],
      "stateMutability": "view",
      "type": "function"
    },
    {
      "inputs": [
        {
          "internalType": "address",
          "name": "from",
          "type": "address"
        },
        {
          "internalType": "address",
          "name": "to",
          "type": "address"
        },
        {
          "internalType": "uint256",
          "name": "tokenId",
          "type": "uint256"
        },
        {
          "components": [
            {
              "components": [
                {
                  "internalType": "bytes32",
                  "name": "dataHash",
                  "type": "bytes32"
                },
                {
                  "internalType": "bytes",
                  "name": "targetPubkey",
                  "type": "bytes"
                },
                {
                  "internalType": "bytes",
                  "name": "nonce",
                  "type": "bytes"
                },
                {
                  "internalType": "bytes",
                  "name": "proof",
                  "type": "bytes"
                }
              ],
              "internalType": "struct AccessProof",
              "name": "accessProof",
              "type": "tuple"
            },
            {
              "components": [
                {
                  "internalType": "enum OracleType",
                  "name": "oracleType",
                  "type": "uint8"
                },
                {
                  "internalType": "bytes32",
                  "name": "dataHash",
                  "type": "bytes32"
                },
                {
                  "internalType": "bytes",
                  "name": "sealedKey",
                  "type": "bytes"
                },
                {
                  "internalType": "bytes",
                  "name": "targetPubkey",
                  "type": "bytes"
                },
                {
                  "internalType": "bytes",
                  "name": "nonce",
                  "type": "bytes"
                },
                {
                  "internalType": "bytes",
                  "name": "proof",
                  "type": "bytes"
                }
              ],
              "internalType": "struct OwnershipProof",
              "name": "ownershipProof",
              "type": "tuple"
            }
          ],
          "internalType": "struct TransferValidityProof[]",
          "name": "proofs",
          "type": "tuple[]"
        }
      ],
      "name": "iTransferFrom",
      "outputs": [],
      "stateMutability": "nonpayable",
      "type": "function"
    },
    {
      "inputs": [
        {
          "internalType": "uint256",
          "name": "tokenId",
          "type": "uint256"
        }
      ],
      "name": "intelligentDatasOf",
      "outputs": [
        {
          "components": [
            {
              "internalType": "string",
              "name": "dataDescription",
              "type": "string"
            },
            {
              "internalType": "bytes32",
              "name": "dataHash",
              "type": "bytes32"
            }
          ],
          "internalType": "struct IntelligentData[]",
          "name": "",
          "type": "tuple[]"
        }
      ],
      "stateMutability": "view",
      "type": "function"
    },
    {
      "inputs": [
        {
          "internalType": "address",
          "name": "owner",
          "type": "address"
        },
        {
          "internalType": "address",
          "name": "operator",
          "type": "address"
        }
      ],
      "name": "isApprovedForAll",
      "outputs": [
        {
          "internalType": "bool",
          "name": "",
          "type": "bool"
        }
      ],
      "stateMutability": "view",
      "type": "function"
    },
    {
      "inputs": [
        {
          "internalType": "uint256",
          "name": "tokenId",
          "type": "uint256"
        },
        {
          "internalType": "address",
          "name": "user",
          "type": "address"
        }
      ],
      "name": "isAuthorized",
      "outputs": [
        {
          "internalType": "bool",
          "name": "",
          "type": "bool"
        }
      ],
      "stateMutability": "view",
      "type": "function"
    },
    {
      "inputs": [
        {
          "internalType": "address",
          "name": "to",
          "type": "address"
        },
        {
          "internalType": "string",
          "name": "botId",
          "type": "string"
        },
        {
          "internalType": "string",
          "name": "domainTags",
          "type": "string"
        },
        {
          "internalType": "string",
          "name": "serviceOfferings",
          "type": "string"
        },
        {
          "components": [
            {
              "internalType": "string",
              "name": "dataDescription",
              "type": "string"
            },
            {
              "internalType": "bytes32",
              "name": "dataHash",
              "type": "bytes32"
            }
          ],
          "internalType": "struct IntelligentData[]",
          "name": "iDatas",
          "type": "tuple[]"
        }
      ],
      "name": "mintAgent",
      "outputs": [
        {
          "internalType": "uint256",
          "name": "",
          "type": "uint256"
        }
      ],
      "stateMutability": "nonpayable",
      "type": "function"
    },
    {
      "inputs": [],
      "name": "name",
      "outputs": [
        {
          "internalType": "string",
          "name": "",
          "type": "string"
        }
      ],
      "stateMutability": "view",
      "type": "function"
    },
    {
      "inputs": [],
      "name": "owner",
      "outputs": [
        {
          "internalType": "address",
          "name": "",
          "type": "address"
        }
      ],
      "stateMutability": "view",
      "type": "function"
    },
    {
      "inputs": [
        {
          "internalType": "uint256",
          "name": "tokenId",
          "type": "uint256"
        }
      ],
      "name": "ownerOf",
      "outputs": [
        {
          "internalType": "address",
          "name": "",
          "type": "address"
        }
      ],
      "stateMutability": "view",
      "type": "function"
    },
    {
      "inputs": [
        {
          "internalType": "uint256",
          "name": "tokenId",
          "type": "uint256"
        }
      ],
      "name": "recordContribution",
      "outputs": [],
      "stateMutability": "nonpayable",
      "type": "function"
    },
    {
      "inputs": [],
      "name": "renounceOwnership",
      "outputs": [],
      "stateMutability": "nonpayable",
      "type": "function"
    },
    {
      "inputs": [
        {
          "internalType": "uint256",
          "name": "tokenId",
          "type": "uint256"
        },
        {
          "internalType": "address",
          "name": "user",
          "type": "address"
        }
      ],
      "name": "revokeAuthorization",
      "outputs": [],
      "stateMutability": "nonpayable",
      "type": "function"
    },
    {
      "inputs": [
        {
          "internalType": "address",
          "name": "from",
          "type": "address"
        },
        {
          "internalType": "address",
          "name": "to",
          "type": "address"
        },
        {
          "internalType": "uint256",
          "name": "tokenId",
          "type": "uint256"
        }
      ],
      "name": "safeTransferFrom",
      "outputs": [],
      "stateMutability": "nonpayable",
      "type": "function"
    },
    {
      "inputs": [
        {
          "internalType": "address",
          "name": "from",
          "type": "address"
        },
        {
          "internalType": "address",
          "name": "to",
          "type": "address"
        },
        {
          "internalType": "uint256",
          "name": "tokenId",
          "type": "uint256"
        },
        {
          "internalType": "bytes",
          "name": "data",
          "type": "bytes"
        }
      ],
      "name": "safeTransferFrom",
      "outputs": [],
      "stateMutability": "nonpayable",
      "type": "function"
    },
    {
      "inputs": [
        {
          "internalType": "address",
          "name": "operator",
          "type": "address"
        },
        {
          "internalType": "bool",
          "name": "approved",
          "type": "bool"
        }
      ],
      "name": "setApprovalForAll",
      "outputs": [],
      "stateMutability": "nonpayable",
      "type": "function"
    },
    {
      "inputs": [
        {
          "internalType": "bytes4",
          "name": "interfaceId",
          "type": "bytes4"
        }
      ],
      "name": "supportsInterface",
      "outputs": [
        {
          "internalType": "bool",
          "name": "",
          "type": "bool"
        }
      ],
      "stateMutability": "view",
      "type": "function"
    },
    {
      "inputs": [],
      "name": "symbol",
      "outputs": [
        {
          "internalType": "string",
          "name": "",
          "type": "string"
        }
      ],
      "stateMutability": "view",
      "type": "function"
    },
    {
      "inputs": [
        {
          "internalType": "uint256",
          "name": "tokenId",
          "type": "uint256"
        }
      ],
      "name": "tokenURI",
      "outputs": [
        {
          "internalType": "string",
          "name": "",
          "type": "string"
        }
      ],
      "stateMutability": "view",
      "type": "function"
    },
    {
      "inputs": [],
      "name": "totalMinted",
      "outputs": [
        {
          "internalType": "uint256",
          "name": "",
          "type": "uint256"
        }
      ],
      "stateMutability": "view",
      "type": "function"
    },
    {
      "inputs": [
        {
          "internalType": "address",
          "name": "from",
          "type": "address"
        },
        {
          "internalType": "address",
          "name": "to",
          "type": "address"
        },
        {
          "internalType": "uint256",
          "name": "tokenId",
          "type": "uint256"
        }
      ],
      "name": "transferFrom",
      "outputs": [],
      "stateMutability": "nonpayable",
      "type": "function"
    },
    {
      "inputs": [
        {
          "internalType": "address",
          "name": "newOwner",
          "type": "address"
        }
      ],
      "name": "transferOwnership",
      "outputs": [],
      "stateMutability": "nonpayable",
      "type": "function"
    },
    {
      "inputs": [
        {
          "internalType": "uint256",
          "name": "tokenId",
          "type": "uint256"
        },
        {
          "components": [
            {
              "internalType": "string",
              "name": "dataDescription",
              "type": "string"
            },
            {
              "internalType": "bytes32",
              "name": "dataHash",
              "type": "bytes32"
            }
          ],
          "internalType": "struct IntelligentData[]",
          "name": "newDatas",
          "type": "tuple[]"
        }
      ],
      "name": "updateData",
      "outputs": [],
      "stateMutability": "nonpayable",
      "type": "function"
    },
    {
      "inputs": [
        {
          "internalType": "uint256",
          "name": "tokenId",
          "type": "uint256"
        },
        {
          "internalType": "string",
          "name": "domainTags",
          "type": "string"
        },
        {
          "internalType": "string",
          "name": "serviceOfferings",
          "type": "string"
        }
      ],
      "name": "updateProfile",
      "outputs": [],
      "stateMutability": "nonpayable",
      "type": "function"
    },
    {
      "inputs": [
        {
          "internalType": "uint256",
          "name": "tokenId",
          "type": "uint256"
        },
        {
          "internalType": "uint256",
          "name": "newScore",
          "type": "uint256"
        }
      ],
      "name": "updateReputation",
      "outputs": [],
      "stateMutability": "nonpayable",
      "type": "function"
    },
    {
      "inputs": [],
      "name": "verifier",
      "outputs": [
        {
          "internalType": "contract IERC7857DataVerifier",
          "name": "",
          "type": "address"
        }
      ],
      "stateMutability": "view",
      "type": "function"
    }
  ],
  "bytecode": "0x60806040526001600d55348015610014575f5ffd5b506040516134dc3803806134dc83398101604081905261003391610146565b336040518060400160405280601081526020016f14d4105492c81a539195081059d95b9d60821b81525060405180604001604052806005815260200164535041524b60d81b815250815f9081610089919061020b565b506001610096828261020b565b5050506001600160a01b0381166100c657604051631e4fbdf760e01b81525f600482015260240160405180910390fd5b6100cf816100f5565b50600780546001600160a01b0319166001600160a01b03929092169190911790556102c5565b600680546001600160a01b038381166001600160a01b0319831681179093556040519116919082907f8be0079c531659141344cd1fd0a4f28419497f9722a3daafe3b4186f6b6457e0905f90a35050565b5f60208284031215610156575f5ffd5b81516001600160a01b038116811461016c575f5ffd5b9392505050565b634e487b7160e01b5f52604160045260245ffd5b600181811c9082168061019b57607f821691505b6020821081036101b957634e487b7160e01b5f52602260045260245ffd5b50919050565b601f82111561020657805f5260205f20601f840160051c810160208510156101e45750805b601f840160051c820191505b81811015610203575f81556001016101f0565b50505b505050565b81516001600160401b0381111561022457610224610173565b610238816102328454610187565b846101bf565b6020601f82116001811461026a575f83156102535750848201515b5f19600385901b1c1916600184901b178455610203565b5f84815260208120601f198516915b828110156102995787850151825560209485019460019092019101610279565b50848210156102b657868401515f19600387901b60f8161c191681555b50505050600190811b01905550565b61320a806102d25f395ff3fe608060405234801561000f575f5ffd5b50600436106101e7575f3560e01c806388c6a95611610109578063c3612ef71161009e578063f098a7ae1161006e578063f098a7ae14610472578063f2fde38b14610492578063f5bc196f146104a5578063fa83d14e146104b8575f5ffd5b8063c3612ef714610426578063c87b56dd14610439578063e985e9c51461044c578063eafcbf9c1461045f575f5ffd5b8063a22cb465116100d9578063a22cb465146103e5578063a2309ff8146103f8578063b88d4fde14610400578063bc41807514610413575f5ffd5b806388c6a956146103a65780638da5cb5b146103b957806395d89b41146103ca57806398bd57de146103d2575f5ffd5b80632b7ac3f31161017f5780636352211e1161014f5780636352211e146103575780636bba415c1461036a57806370a082311461037d578063715018a61461039e575f5ffd5b80632b7ac3f3146102d957806340fbd72f146102ec57806342842e0e1461030c578063609c6d7f1461031f575f5ffd5b8063095ea7b3116101ba578063095ea7b3146102685780630e592fdd1461027b5780631aeb542f146102a657806323b872dd146102c6575f5ffd5b806301ffc9a7146101eb5780630675f7631461021357806306fdde0314610228578063081812fc1461023d575b5f5ffd5b6101fe6101f936600461216b565b6104cb565b60405190151581526020015b60405180910390f35b61022661022136600461218d565b610510565b005b610230610537565b60405161020a91906121db565b61025061024b3660046121ed565b6105c6565b6040516001600160a01b03909116815260200161020a565b610226610276366004612218565b6105ed565b610250610289366004612242565b6001600160a01b039081165f908152600860205260409020541690565b6102b96102b43660046121ed565b6105fc565b60405161020a919061225d565b6102266102d43660046122a8565b610665565b600754610250906001600160a01b031681565b6102ff6102fa3660046121ed565b6106f3565b60405161020a9190612353565b61022661031a3660046122a8565b61084c565b6101fe61032d366004612365565b5f918252600a602090815260408084206001600160a01b0393909316845291905290205460ff1690565b6102506103653660046121ed565b61086b565b6102266103783660046123da565b610875565b61039061038b366004612242565b610ab0565b60405190815260200161020a565b610226610af5565b6102266103b436600461245e565b610b08565b6006546001600160a01b0316610250565b610230610bb3565b6102266103e0366004612242565b610bc2565b6102266103f33660046124d5565b610c18565b610390610c23565b61022661040e366004612597565b610c38565b61039061042136600461263e565b610c50565b610226610434366004612365565b610eb2565b6102306104473660046121ed565b6110a9565b6101fe61045a36600461271c565b6111c6565b61022661046d366004612748565b6111f3565b6104856104803660046121ed565b611500565b60405161020a91906127a4565b6102266104a0366004612242565b61178c565b6102266104b33660046121ed565b6117c9565b6102266104c6366004612365565b611870565b5f6001600160e01b031982166315d8811b60e21b14806104fb57506001600160e01b03198216631184d5cb60e11b145b8061050a575061050a826119d3565b92915050565b610518611a22565b5f918252600c6020526040909120600381019190915542600690910155565b60605f805461054590612830565b80601f016020809104026020016040519081016040528092919081815260200182805461057190612830565b80156105bc5780601f10610593576101008083540402835291602001916105bc565b820191905f5260205f20905b81548152906001019060200180831161059f57829003601f168201915b5050505050905090565b5f6105d082611a4f565b505f828152600460205260409020546001600160a01b031661050a565b6105f8828233611a87565b5050565b5f818152600b602090815260409182902080548351818402810184019094528084526060939283018282801561065957602002820191905f5260205f20905b81546001600160a01b0316815260019091019060200180831161063b575b50505050509050919050565b6001600160a01b03821661069357604051633250574960e11b81525f60048201526024015b60405180910390fd5b5f61069f838333611a94565b9050836001600160a01b0316816001600160a01b0316146106ed576040516364283d7b60e01b81526001600160a01b038086166004830152602482018490528216604482015260640161068a565b50505050565b5f818152600260205260409020546060906001600160a01b03166107505760405162461bcd60e51b8152602060048201526014602482015273151bdad95b88191bd95cc81b9bdd08195e1a5cdd60621b604482015260640161068a565b5f82815260096020908152604080832080548251818502810185019093528083529193909284015b82821015610841578382905f5260205f2090600202016040518060400160405290815f820180546107a890612830565b80601f01602080910402602001604051908101604052809291908181526020018280546107d490612830565b801561081f5780601f106107f65761010080835404028352916020019161081f565b820191905f5260205f20905b81548152906001019060200180831161080257829003601f168201915b5050505050815260200160018201548152505081526020019060010190610778565b505050509050919050565b61086683838360405180602001604052805f815250610c38565b505050565b5f61050a82611a4f565b3361087f8461086b565b6001600160a01b0316146108a55760405162461bcd60e51b815260040161068a90612868565b806108df5760405162461bcd60e51b815260206004820152600a602482015269456d707479206461746160b01b604482015260640161068a565b5f83815260096020908152604080832080548251818502810185019093528083529192909190849084015b828210156109d3578382905f5260205f2090600202016040518060400160405290815f8201805461093a90612830565b80601f016020809104026020016040519081016040528092919081815260200182805461096690612830565b80156109b15780601f10610988576101008083540402835291602001916109b1565b820191905f5260205f20905b81548152906001019060200180831161099457829003601f168201915b505050505081526020016001820154815250508152602001906001019061090a565b5050505f8681526009602052604081209293506109f19291506120d0565b5f5b82811015610a57575f858152600960205260409020848483818110610a1a57610a1a61288b565b9050602002810190610a2c919061289f565b81546001810183555f9283526020909220909160020201610a4d82826129c9565b50506001016109f3565b505f848152600c602052604090819020426006909101555184907f0950ea0f010b000d7cfc9ef49213d3385d8512dd80de45ce2fbf8fc123c4f9a490610aa290849087908790612b41565b60405180910390a250505050565b5f6001600160a01b038216610ada576040516322718ad960e21b81525f600482015260240161068a565b506001600160a01b03165f9081526003602052604090205490565b610afd611a22565b610b065f611b86565b565b33610b128661086b565b6001600160a01b031614610b385760405162461bcd60e51b815260040161068a90612868565b5f858152600c6020526040902060018101610b54858783612915565b5060028101610b64838583612915565b5042600682015560405186907fb6797532cd72c15eba6bec2cd9dc1e0f16c7e86effd0dbf27d5115c6fdafcdba90610ba3908890889088908890612bd6565b60405180910390a2505050505050565b60606001805461054590612830565b335f8181526008602052604080822080546001600160a01b0319166001600160a01b03861690811790915590519092917f57a5f7ce01affd949c0efd1484fd811d31ff5c8ca21c7006f5f4de7292f26de491a350565b6105f8338383611bd7565b5f6001600d54610c339190612c1b565b905090565b610c43848484610665565b6106ed3385858585611c9e565b5f6001600160a01b038a16610c965760405162461bcd60e51b815260206004820152600c60248201526b5a65726f206164647265737360a01b604482015260640161068a565b600d80545f9182610ca683612c2e565b919050559050610cb68b82611dc6565b5f5b83811015610d1c575f828152600960205260409020858583818110610cdf57610cdf61288b565b9050602002810190610cf1919061289f565b81546001810183555f9283526020909220909160020201610d1282826129c9565b5050600101610cb8565b506040518060e001604052808b8b8080601f0160208091040260200160405190810160405280939291908181526020018383808284375f92019190915250505090825250604080516020601f8c018190048102820181019092528a815291810191908b908b90819084018382808284375f92019190915250505090825250604080516020601f8a01819004810282018101909252888152918101919089908990819084018382808284375f920182905250938552505050602080830182905260408084018390524260608501819052608090940193909352848252600c90522081518190610e0a9082612c46565b5060208201516001820190610e1f9082612c46565b5060408201516002820190610e349082612c46565b50606082015181600301556080820151816004015560a0820151816005015560c082015181600601559050508a6001600160a01b0316817f4163bfac127160e0f9f156ad45f09360dfe365c4fcdf394c40bdfece890ee6f78c8c604051610e9c929190612cfb565b60405180910390a39a9950505050505050505050565b33610ebc8361086b565b6001600160a01b031614610ee25760405162461bcd60e51b815260040161068a90612868565b5f828152600a602090815260408083206001600160a01b038516845290915290205460ff16610f445760405162461bcd60e51b815260206004820152600e60248201526d139bdd08185d5d1a1bdc9a5e995960921b604482015260640161068a565b5f828152600a602090815260408083206001600160a01b03851684528252808320805460ff19169055848352600b9091528120905b815481101561106c57826001600160a01b0316828281548110610f9e57610f9e61288b565b5f918252602090912001546001600160a01b0316036110645781548290610fc790600190612c1b565b81548110610fd757610fd761288b565b905f5260205f20015f9054906101000a90046001600160a01b03168282815481106110045761100461288b565b905f5260205f20015f6101000a8154816001600160a01b0302191690836001600160a01b031602179055508180548061103f5761103f612d0e565b5f8281526020902081015f1990810180546001600160a01b031916905501905561106c565b600101610f79565b5060405183906001600160a01b0384169033907fd1662978c81e15f621e7a38524048493c6e86d91a24a29619d164bef0a8d0a98905f90a4505050565b60606110b482611a4f565b505f8281526009602052604090208054158015906110fd57505f815f815481106110e0576110e061288b565b905f5260205f2090600202015f0180546110f990612830565b9050115b156111b157805f815481106111145761111461288b565b905f5260205f2090600202015f01805461112d90612830565b80601f016020809104026020016040519081016040528092919081815260200182805461115990612830565b80156111a45780601f1061117b576101008083540402835291602001916111a4565b820191905f5260205f20905b81548152906001019060200180831161118757829003601f168201915b5050505050915050919050565b505060408051602081019091525f8152919050565b6001600160a01b039182165f90815260056020908152604080832093909416825291909152205460ff1690565b846001600160a01b03166112068461086b565b6001600160a01b03161461122c5760405162461bcd60e51b815260040161068a90612868565b6001600160a01b0384166112765760405162461bcd60e51b8152602060048201526011602482015270125b9d985b1a59081c9958da5c1a595b9d607a1b604482015260640161068a565b806112b25760405162461bcd60e51b815260206004820152600c60248201526b456d7074792070726f6f667360a01b604482015260640161068a565b600754604051634ca5fd6960e01b81525f916001600160a01b031690634ca5fd69906112e49086908690600401612dec565b5f604051808303815f875af11580156112ff573d5f5f3e3d5ffd5b505050506040513d5f823e601f3d908101601f191682016040526113269190810190612f5f565b5f8581526009602052604090205481519192501461137d5760405162461bcd60e51b81526020600482015260146024820152730a0e4dedecc40c6deeadce840dad2e6dac2e8c6d60631b604482015260640161068a565b5f81516001600160401b0381111561139757611397612505565b6040519080825280602002602001820160405280156113ca57816020015b60608152602001906001900390816113b55790505b5090505f5b82518110156114a9575f8681526009602052604090208054829081106113f7576113f761288b565b905f5260205f209060020201600101548382815181106114195761141961288b565b60200260200101515f0151146114665760405162461bcd60e51b8152602060048201526012602482015271088c2e8c240d0c2e6d040dad2e6dac2e8c6d60731b604482015260640161068a565b8281815181106114785761147861288b565b6020026020010151602001518282815181106114965761149661288b565b60209081029190910101526001016113cf565b506114b5878787611ddf565b84866001600160a01b03167f77ac1306adadb66d303dd0baa0534083040b337a1212922215a3ccbaf6fec56c836040516114ef9190613124565b60405180910390a350505050505050565b61153c6040518060e001604052806060815260200160608152602001606081526020015f81526020015f81526020015f81526020015f81525090565b5f828152600260205260409020546001600160a01b03166115965760405162461bcd60e51b8152602060048201526014602482015273151bdad95b88191bd95cc81b9bdd08195e1a5cdd60621b604482015260640161068a565b5f828152600c602052604090819020815160e081019092528054829082906115bd90612830565b80601f01602080910402602001604051908101604052809291908181526020018280546115e990612830565b80156116345780601f1061160b57610100808354040283529160200191611634565b820191905f5260205f20905b81548152906001019060200180831161161757829003601f168201915b5050505050815260200160018201805461164d90612830565b80601f016020809104026020016040519081016040528092919081815260200182805461167990612830565b80156116c45780601f1061169b576101008083540402835291602001916116c4565b820191905f5260205f20905b8154815290600101906020018083116116a757829003601f168201915b505050505081526020016002820180546116dd90612830565b80601f016020809104026020016040519081016040528092919081815260200182805461170990612830565b80156117545780601f1061172b57610100808354040283529160200191611754565b820191905f5260205f20905b81548152906001019060200180831161173757829003601f168201915b505050505081526020016003820154815260200160048201548152602001600582015481526020016006820154815250509050919050565b611794611a22565b6001600160a01b0381166117bd57604051631e4fbdf760e01b81525f600482015260240161068a565b6117c681611b86565b50565b336117d38261086b565b6001600160a01b0316146117f95760405162461bcd60e51b815260040161068a90612868565b5f818152600c6020526040812060040180549161181583612c2e565b90915550505f818152600c60205260409081902042600682015560040154905182917f67dfde09f3efc3d99fc751b2f6bfcb66fa7b11436f9374765379c0a86cfccf6f9161186591815260200190565b60405180910390a250565b3361187a8361086b565b6001600160a01b0316146118a05760405162461bcd60e51b815260040161068a90612868565b6001600160a01b0381166118e55760405162461bcd60e51b815260206004820152600c60248201526b5a65726f206164647265737360a01b604482015260640161068a565b5f828152600a602090815260408083206001600160a01b038516845290915290205460ff161561194c5760405162461bcd60e51b8152602060048201526012602482015271105b1c9958591e48185d5d1a1bdc9a5e995960721b604482015260640161068a565b5f828152600a602090815260408083206001600160a01b038516808552908352818420805460ff19166001908117909155868552600b845282852080549182018155855292842090920180546001600160a01b0319168317905551849233917f8a1c60ca1a16acd72d841a74fa5905de3938132b0b2ff6cb385a7e69af345fc99190a45050565b5f6001600160e01b031982166380ac58cd60e01b1480611a0357506001600160e01b03198216635b5e139f60e01b145b8061050a57506301ffc9a760e01b6001600160e01b031983161461050a565b6006546001600160a01b03163314610b065760405163118cdaa760e01b815233600482015260240161068a565b5f818152600260205260408120546001600160a01b03168061050a57604051637e27328960e01b81526004810184905260240161068a565b6108668383836001611e8c565b5f828152600260205260408120546001600160a01b0390811690831615611ac057611ac0818486611f90565b6001600160a01b03811615611afa57611adb5f855f5f611e8c565b6001600160a01b0381165f90815260036020526040902080545f190190555b6001600160a01b03851615611b28576001600160a01b0385165f908152600360205260409020805460010190555b5f8481526002602052604080822080546001600160a01b0319166001600160a01b0389811691821790925591518793918516917fddf252ad1be2c89b69c2b068fc378daa952ba7f163c4a11628f55a4df523b3ef91a4949350505050565b600680546001600160a01b038381166001600160a01b0319831681179093556040519116919082907f8be0079c531659141344cd1fd0a4f28419497f9722a3daafe3b4186f6b6457e0905f90a35050565b6001600160a01b038316611c005760405163a9fbf51f60e01b81525f600482015260240161068a565b6001600160a01b038216611c3257604051630b61174360e31b81526001600160a01b038316600482015260240161068a565b6001600160a01b038381165f81815260056020908152604080832094871680845294825291829020805460ff191686151590811790915591519182527f17307eab39ab6107e8899845ad3d59bd9653f200f220920489ca2b5937696c31910160405180910390a3505050565b6001600160a01b0383163b15611dbf57604051630a85bd0160e11b81526001600160a01b0384169063150b7a0290611ce0908890889087908790600401613187565b6020604051808303815f875af1925050508015611d1a575060408051601f3d908101601f19168201909252611d17918101906131b9565b60015b611d81573d808015611d47576040519150601f19603f3d011682016040523d82523d5f602084013e611d4c565b606091505b5080515f03611d7957604051633250574960e11b81526001600160a01b038516600482015260240161068a565b805160208201fd5b6001600160e01b03198116630a85bd0160e11b14611dbd57604051633250574960e11b81526001600160a01b038516600482015260240161068a565b505b5050505050565b6105f8828260405180602001604052805f815250611ff4565b6001600160a01b038216611e0857604051633250574960e11b81525f600482015260240161068a565b5f611e1483835f611a94565b90506001600160a01b038116611e4057604051637e27328960e01b81526004810183905260240161068a565b836001600160a01b0316816001600160a01b0316146106ed576040516364283d7b60e01b81526001600160a01b038086166004830152602482018490528216604482015260640161068a565b8080611ea057506001600160a01b03821615155b15611f61575f611eaf84611a4f565b90506001600160a01b03831615801590611edb5750826001600160a01b0316816001600160a01b031614155b8015611eee5750611eec81846111c6565b155b15611f175760405163a9fbf51f60e01b81526001600160a01b038416600482015260240161068a565b8115611f5f5783856001600160a01b0316826001600160a01b03167f8c5be1e5ebec7d5bd14f71427d1e84f3dd0314c0f7b2291e5b200ac8c7c3b92560405160405180910390a45b505b50505f90815260046020526040902080546001600160a01b0319166001600160a01b0392909216919091179055565b611f9b83838361200b565b610866576001600160a01b038316611fc957604051637e27328960e01b81526004810182905260240161068a565b60405163177e802f60e01b81526001600160a01b03831660048201526024810182905260440161068a565b611ffe838361206f565b610866335f858585611c9e565b5f6001600160a01b038316158015906120675750826001600160a01b0316846001600160a01b03161480612044575061204484846111c6565b8061206757505f828152600460205260409020546001600160a01b038481169116145b949350505050565b6001600160a01b03821661209857604051633250574960e11b81525f600482015260240161068a565b5f6120a483835f611a94565b90506001600160a01b03811615610866576040516339e3563760e11b81525f600482015260240161068a565b5080545f8255600202905f5260205f20908101906117c691905b8082111561210c575f6120fd8282612110565b505f60018201556002016120ea565b5090565b50805461211c90612830565b5f825580601f1061212b575050565b601f0160209004905f5260205f20908101906117c691905b8082111561210c575f8155600101612143565b6001600160e01b0319811681146117c6575f5ffd5b5f6020828403121561217b575f5ffd5b813561218681612156565b9392505050565b5f5f6040838503121561219e575f5ffd5b50508035926020909101359150565b5f81518084528060208401602086015e5f602082860101526020601f19601f83011685010191505092915050565b602081525f61218660208301846121ad565b5f602082840312156121fd575f5ffd5b5035919050565b6001600160a01b03811681146117c6575f5ffd5b5f5f60408385031215612229575f5ffd5b823561223481612204565b946020939093013593505050565b5f60208284031215612252575f5ffd5b813561218681612204565b602080825282518282018190525f918401906040840190835b8181101561229d5783516001600160a01b0316835260209384019390920191600101612276565b509095945050505050565b5f5f5f606084860312156122ba575f5ffd5b83356122c581612204565b925060208401356122d581612204565b929592945050506040919091013590565b5f82825180855260208501945060208160051b830101602085015f5b8381101561234757601f19858403018852815180516040855261232860408601826121ad565b6020928301519583019590955250978801979190910190600101612302565b50909695505050505050565b602081525f61218660208301846122e6565b5f5f60408385031215612376575f5ffd5b82359150602083013561238881612204565b809150509250929050565b5f5f83601f8401126123a3575f5ffd5b5081356001600160401b038111156123b9575f5ffd5b6020830191508360208260051b85010111156123d3575f5ffd5b9250929050565b5f5f5f604084860312156123ec575f5ffd5b8335925060208401356001600160401b03811115612408575f5ffd5b61241486828701612393565b9497909650939450505050565b5f5f83601f840112612431575f5ffd5b5081356001600160401b03811115612447575f5ffd5b6020830191508360208285010111156123d3575f5ffd5b5f5f5f5f5f60608688031215612472575f5ffd5b8535945060208601356001600160401b0381111561248e575f5ffd5b61249a88828901612421565b90955093505060408601356001600160401b038111156124b8575f5ffd5b6124c488828901612421565b969995985093965092949392505050565b5f5f604083850312156124e6575f5ffd5b82356124f181612204565b915060208301358015158114612388575f5ffd5b634e487b7160e01b5f52604160045260245ffd5b60405160e081016001600160401b038111828210171561253b5761253b612505565b60405290565b604051601f8201601f191681016001600160401b038111828210171561256957612569612505565b604052919050565b5f6001600160401b0382111561258957612589612505565b50601f01601f191660200190565b5f5f5f5f608085870312156125aa575f5ffd5b84356125b581612204565b935060208501356125c581612204565b92506040850135915060608501356001600160401b038111156125e6575f5ffd5b8501601f810187136125f6575f5ffd5b803561260961260482612571565b612541565b81815288602083850101111561261d575f5ffd5b816020840160208301375f6020838301015280935050505092959194509250565b5f5f5f5f5f5f5f5f5f60a08a8c031215612656575f5ffd5b893561266181612204565b985060208a01356001600160401b0381111561267b575f5ffd5b6126878c828d01612421565b90995097505060408a01356001600160401b038111156126a5575f5ffd5b6126b18c828d01612421565b90975095505060608a01356001600160401b038111156126cf575f5ffd5b6126db8c828d01612421565b90955093505060808a01356001600160401b038111156126f9575f5ffd5b6127058c828d01612393565b915080935050809150509295985092959850929598565b5f5f6040838503121561272d575f5ffd5b823561273881612204565b9150602083013561238881612204565b5f5f5f5f5f6080868803121561275c575f5ffd5b853561276781612204565b9450602086013561277781612204565b93506040860135925060608601356001600160401b03811115612798575f5ffd5b6124c488828901612393565b602081525f825160e060208401526127c06101008401826121ad565b90506020840151601f198483030160408501526127dd82826121ad565b9150506040840151601f198483030160608501526127fb82826121ad565b91505060608401516080840152608084015160a084015260a084015160c084015260c084015160e08401528091505092915050565b600181811c9082168061284457607f821691505b60208210810361286257634e487b7160e01b5f52602260045260245ffd5b50919050565b6020808252600990820152682737ba1037bbb732b960b91b604082015260600190565b634e487b7160e01b5f52603260045260245ffd5b5f8235603e198336030181126128b3575f5ffd5b9190910192915050565b601f82111561086657805f5260205f20601f840160051c810160208510156128e25750805b601f840160051c820191505b81811015611dbf575f81556001016128ee565b5f19600383901b1c191660019190911b1790565b6001600160401b0383111561292c5761292c612505565b6129408361293a8354612830565b836128bd565b5f601f84116001811461296c575f851561295a5750838201355b6129648682612901565b845550611dbf565b5f83815260208120601f198716915b8281101561299b578685013582556020948501946001909201910161297b565b50868210156129b7575f1960f88860031b161c19848701351681555b505060018560011b0183555050505050565b8135601e198336030181126129dc575f5ffd5b820180356001600160401b03811180156129f4575f5ffd5b813603602084011315612a05575f5ffd5b5f905050612a1d81612a178554612830565b856128bd565b5f601f821160018114612a4c575f8315612a3a5750838201602001355b612a448482612901565b865550612aa8565b5f85815260208120601f198516915b82811015612a7d57602085880181013583559485019460019092019101612a5b565b5084821015612a9c575f1960f88660031b161c19602085880101351681555b505060018360011b0185555b5050505060209190910135600190910155565b5f5f8335601e19843603018112612ad0575f5ffd5b83016020810192503590506001600160401b03811115612aee575f5ffd5b8036038213156123d3575f5ffd5b81835281816020850137505f828201602090810191909152601f909101601f19169091010190565b5f8235603e19833603018112612b38575f5ffd5b90910192915050565b604081525f612b5360408301866122e6565b82810360208401528084825260208201905060208560051b830101865f5b87811015612bc857848303601f19018452612b8c828a612b24565b612b968182612abb565b60408652612ba8604087018284612afc565b602093840135968401969096525050938401939190910190600101612b71565b509098975050505050505050565b604081525f612be9604083018688612afc565b8281036020840152612bfc818587612afc565b979650505050505050565b634e487b7160e01b5f52601160045260245ffd5b8181038181111561050a5761050a612c07565b5f60018201612c3f57612c3f612c07565b5060010190565b81516001600160401b03811115612c5f57612c5f612505565b612c7381612c6d8454612830565b846128bd565b6020601f821160018114612ca0575f8315612c8e5750848201515b612c988482612901565b855550611dbf565b5f84815260208120601f198516915b82811015612ccf5787850151825560209485019460019092019101612caf565b5084821015612cec57868401515f19600387901b60f8161c191681555b50505050600190811b01905550565b602081525f612067602083018486612afc565b634e487b7160e01b5f52603160045260245ffd5b5f823560be19833603018112612b38575f5ffd5b5f813560028110158015612d48575f5ffd5b50835260208281013590840152612d626040830183612abb565b60c06040860152612d7760c086018284612afc565b915050612d876060840184612abb565b8583036060870152612d9a838284612afc565b92505050612dab6080840184612abb565b8583036080870152612dbe838284612afc565b92505050612dcf60a0840184612abb565b85830360a0870152612de2838284612afc565b9695505050505050565b602080825281018290525f6040600584901b8301810190830185835b86811015612ef657858403603f19018352612e238289612b24565b8035607e19823603018112612e36575f5ffd5b6040808752908201803591870191909152612e546020820182612abb565b60806060890152612e6960c089018284612afc565b915050612e796040830183612abb565b888303603f190160808a0152612e90838284612afc565b92505050612ea16060830183612abb565b888303603f190160a08a01529250612eba828483612afc565b92505050612ecb6020830183612d22565b91508581036020870152612edf8183612d36565b955050506020928301929190910190600101612e08565b50919695505050505050565b5f82601f830112612f11575f5ffd5b8151612f1f61260482612571565b818152846020838601011115612f33575f5ffd5b8160208501602083015e5f918101602001919091529392505050565b8051612f5a81612204565b919050565b5f60208284031215612f6f575f5ffd5b81516001600160401b03811115612f84575f5ffd5b8201601f81018413612f94575f5ffd5b80516001600160401b03811115612fad57612fad612505565b8060051b612fbd60208201612541565b91825260208184018101929081019087841115612fd8575f5ffd5b6020850192505b83831015612bfc5782516001600160401b03811115612ffc575f5ffd5b850160e0818a03601f19011215613011575f5ffd5b613019612519565b6020820151815260408201516001600160401b03811115613038575f5ffd5b6130478b602083860101612f02565b60208301525060608201516001600160401b03811115613065575f5ffd5b6130748b602083860101612f02565b60408301525060808201516001600160401b03811115613092575f5ffd5b6130a18b602083860101612f02565b6060830152506130b360a08301612f4f565b608082015260c08201516001600160401b038111156130d0575f5ffd5b6130df8b602083860101612f02565b60a08301525060e08201516001600160401b038111156130fd575f5ffd5b61310c8b602083860101612f02565b60c08301525083525060209283019290910190612fdf565b5f602082016020835280845180835260408501915060408160051b8601019250602086015f5b8281101561317b57603f198786030184526131668583516121ad565b9450602093840193919091019060010161314a565b50929695505050505050565b6001600160a01b03858116825284166020820152604081018390526080606082018190525f90612de2908301846121ad565b5f602082840312156131c9575f5ffd5b81516121868161215656fea26469706673582212200ea91c2fc4980b6a11d02144a4dd88ef0e7deb55070ce11d6e3b78f661de97c664736f6c634300081c0033",
  "linkReferences": {},
  "deployedLinkReferences": {},
  "immutableReferences": {},
  "inputSourceName": "project/contracts/SPARKiNFT.sol",
  "buildInfoId": "solc-0_8_28-27bfcbf67306411f6fb68b26802b288b87cef1e1"
}