{
  "_format": "hh3-artifact-1",
  "contractName": "SpecialistRegistrar",
  "sourceName": "contracts/SpecialistRegistrar.sol",
  "abi": [
    {
      "inputs": [
        {
          "internalType": "address",
          "name": "_nameWrapper",
          "type": "address"
        },
        {
          "internalType": "address",
          "name": "_resolver",
          "type": "address"
        },
        {
          "internalType": "bytes32",
          "name": "_parentNode",
          "type": "bytes32"
        }
      ],
      "stateMutability": "nonpayable",
      "type": "constructor"
    },
    {
      "inputs": [],
      "name": "InvalidLabel",
      "type": "error"
    },
    {
      "inputs": [],
      "name": "RegistrarNotApproved",
      "type": "error"
    },
    {
      "anonymous": false,
      "inputs": [
        {
          "indexed": true,
          "internalType": "bytes32",
          "name": "node",
          "type": "bytes32"
        },
        {
          "indexed": true,
          "internalType": "address",
          "name": "owner",
          "type": "address"
        },
        {
          "indexed": false,
          "internalType": "string",
          "name": "label",
          "type": "string"
        }
      ],
      "name": "SpecialistRegistered",
      "type": "event"
    },
    {
      "inputs": [],
      "name": "KEY_AXL_PUBKEY",
      "outputs": [
        {
          "internalType": "string",
          "name": "",
          "type": "string"
        }
      ],
      "stateMutability": "view",
      "type": "function"
    },
    {
      "inputs": [],
      "name": "KEY_PRICE",
      "outputs": [
        {
          "internalType": "string",
          "name": "",
          "type": "string"
        }
      ],
      "stateMutability": "view",
      "type": "function"
    },
    {
      "inputs": [],
      "name": "KEY_SKILLS",
      "outputs": [
        {
          "internalType": "string",
          "name": "",
          "type": "string"
        }
      ],
      "stateMutability": "view",
      "type": "function"
    },
    {
      "inputs": [],
      "name": "KEY_TOKEN_ID",
      "outputs": [
        {
          "internalType": "string",
          "name": "",
          "type": "string"
        }
      ],
      "stateMutability": "view",
      "type": "function"
    },
    {
      "inputs": [],
      "name": "KEY_VERSION",
      "outputs": [
        {
          "internalType": "string",
          "name": "",
          "type": "string"
        }
      ],
      "stateMutability": "view",
      "type": "function"
    },
    {
      "inputs": [],
      "name": "KEY_WORKSPACE_URI",
      "outputs": [
        {
          "internalType": "string",
          "name": "",
          "type": "string"
        }
      ],
      "stateMutability": "view",
      "type": "function"
    },
    {
      "inputs": [],
      "name": "nameWrapper",
      "outputs": [
        {
          "internalType": "contract INameWrapper",
          "name": "",
          "type": "address"
        }
      ],
      "stateMutability": "view",
      "type": "function"
    },
    {
      "inputs": [
        {
          "internalType": "address",
          "name": "",
          "type": "address"
        },
        {
          "internalType": "address",
          "name": "",
          "type": "address"
        },
        {
          "internalType": "uint256[]",
          "name": "",
          "type": "uint256[]"
        },
        {
          "internalType": "uint256[]",
          "name": "",
          "type": "uint256[]"
        },
        {
          "internalType": "bytes",
          "name": "",
          "type": "bytes"
        }
      ],
      "name": "onERC1155BatchReceived",
      "outputs": [
        {
          "internalType": "bytes4",
          "name": "",
          "type": "bytes4"
        }
      ],
      "stateMutability": "pure",
      "type": "function"
    },
    {
      "inputs": [
        {
          "internalType": "address",
          "name": "",
          "type": "address"
        },
        {
          "internalType": "address",
          "name": "",
          "type": "address"
        },
        {
          "internalType": "uint256",
          "name": "",
          "type": "uint256"
        },
        {
          "internalType": "uint256",
          "name": "",
          "type": "uint256"
        },
        {
          "internalType": "bytes",
          "name": "",
          "type": "bytes"
        }
      ],
      "name": "onERC1155Received",
      "outputs": [
        {
          "internalType": "bytes4",
          "name": "",
          "type": "bytes4"
        }
      ],
      "stateMutability": "pure",
      "type": "function"
    },
    {
      "inputs": [],
      "name": "parentNode",
      "outputs": [
        {
          "internalType": "bytes32",
          "name": "",
          "type": "bytes32"
        }
      ],
      "stateMutability": "view",
      "type": "function"
    },
    {
      "inputs": [
        {
          "internalType": "string",
          "name": "label",
          "type": "string"
        },
        {
          "components": [
            {
              "internalType": "string",
              "name": "axlPubkey",
              "type": "string"
            },
            {
              "internalType": "string",
              "name": "skills",
              "type": "string"
            },
            {
              "internalType": "string",
              "name": "workspaceUri",
              "type": "string"
            },
            {
              "internalType": "string",
              "name": "tokenId",
              "type": "string"
            },
            {
              "internalType": "string",
              "name": "price",
              "type": "string"
            },
            {
              "internalType": "string",
              "name": "version",
              "type": "string"
            }
          ],
          "internalType": "struct SpecialistRegistrar.Records",
          "name": "records",
          "type": "tuple"
        }
      ],
      "name": "register",
      "outputs": [
        {
          "internalType": "bytes32",
          "name": "node",
          "type": "bytes32"
        }
      ],
      "stateMutability": "nonpayable",
      "type": "function"
    },
    {
      "inputs": [],
      "name": "resolver",
      "outputs": [
        {
          "internalType": "contract IPublicResolver",
          "name": "",
          "type": "address"
        }
      ],
      "stateMutability": "view",
      "type": "function"
    },
    {
      "inputs": [
        {
          "internalType": "bytes4",
          "name": "interfaceId",
          "type": "bytes4"
        }
      ],
      "name": "supportsInterface",
      "outputs": [
        {
          "internalType": "bool",
          "name": "",
          "type": "bool"
        }
      ],
      "stateMutability": "pure",
      "type": "function"
    }
  ],
  "bytecode": "0x60e060405234801561000f575f5ffd5b5060405161116338038061116383398101604081905261002e91610064565b6001600160a01b03928316608052911660a05260c05261009d565b80516001600160a01b038116811461005f575f5ffd5b919050565b5f5f5f60608486031215610076575f5ffd5b61007f84610049565b925061008d60208501610049565b9150604084015190509250925092565b60805160a05160c0516110426101215f395f81816102dc0152818161034e01526104e101525f818160fc01528181610509015281816105a501528181610626015281816106fd015281816107820152818161083201526108dc01525f81816101ea0152818161037801528181610414015281816104b401526109ba01526110425ff3fe608060405234801561000f575f5ffd5b50600436106100cb575f3560e01c8063a8e5fbc011610088578063d37810a011610063578063d37810a014610271578063eb6ae39514610292578063f23a6e61146102b7578063f3068a00146102d7575f5ffd5b8063a8e5fbc0146101e5578063bc197c811461020c578063d006da2514610247575f5ffd5b806301ffc9a7146100cf57806304f3bcec146100f75780630d780580146101365780630eb7764a146101725780631369ac3e1461019b5780632179045c146101c1575b5f5ffd5b6100e26100dd366004610b9d565b6102fe565b60405190151581526020015b60405180910390f35b61011e7f000000000000000000000000000000000000000000000000000000000000000081565b6040516001600160a01b0390911681526020016100ee565b6101656040518060400160405280601081526020016f30675f776f726b73706163655f75726960801b81525081565b6040516100ee9190610bf9565b6101656040518060400160405280600a81526020016961786c5f7075626b657960b01b81525081565b610165604051806040016040528060078152602001663b32b939b4b7b760c91b81525081565b61016560405180604001604052806005815260200164707269636560d81b81525081565b61011e7f000000000000000000000000000000000000000000000000000000000000000081565b61022e61021a366004610ca8565b63bc197c8160e01b98975050505050505050565b6040516001600160e01b031990911681526020016100ee565b6101656040518060400160405280600b81526020016a0c19d7dd1bdad95b97da5960aa1b81525081565b61028461027f366004610d6b565b610334565b6040519081526020016100ee565b61016560405180604001604052806006815260200165736b696c6c7360d01b81525081565b61022e6102c5366004610dda565b63f23a6e6160e01b9695505050505050565b6102847f000000000000000000000000000000000000000000000000000000000000000081565b5f6301ffc9a760e01b6001600160e01b03198316148061032e5750630271189760e51b6001600160e01b03198316145b92915050565b5f61033f8484610a68565b604051630178fe3f60e01b81527f000000000000000000000000000000000000000000000000000000000000000060048201525f9081907f00000000000000000000000000000000000000000000000000000000000000006001600160a01b031690630178fe3f90602401606060405180830381865afa1580156103c5573d5f5f3e3d5ffd5b505050506040513d601f19601f820116820180604052508101906103e99190610e51565b60405163e985e9c560e01b81526001600160a01b0380851660048301523060248301529395509093507f00000000000000000000000000000000000000000000000000000000000000009092169163e985e9c59150604401602060405180830381865afa15801561045c573d5f5f3e3d5ffd5b505050506040513d601f19601f820116820180604052508101906104809190610ea4565b61049d5760405163bcedfd2360e01b815260040160405180910390fd5b6040516309306bd160e21b81526001600160a01b037f000000000000000000000000000000000000000000000000000000000000000016906324c1af4490610537907f0000000000000000000000000000000000000000000000000000000000000000908a908a9030907f0000000000000000000000000000000000000000000000000000000000000000905f9081908b90600401610eeb565b6020604051808303815f875af1158015610553573d5f5f3e3d5ffd5b505050506040513d601f19601f820116820180604052508101906105779190610f4d565b60408051808201909152600a81526961786c5f7075626b657960b01b60208201529093506001600160a01b037f000000000000000000000000000000000000000000000000000000000000000016906310f13a8c9085906105d88880610f64565b6040518563ffffffff1660e01b81526004016105f79493929190610fa7565b5f604051808303815f87803b15801561060e575f5ffd5b505af1158015610620573d5f5f3e3d5ffd5b505050507f00000000000000000000000000000000000000000000000000000000000000006001600160a01b03166310f13a8c8460405180604001604052806006815260200165736b696c6c7360d01b8152508780602001906106839190610f64565b6040518563ffffffff1660e01b81526004016106a29493929190610fa7565b5f604051808303815f87803b1580156106b9575f5ffd5b505af11580156106cb573d5f5f3e3d5ffd5b5050604080518082018252601081526f30675f776f726b73706163655f75726960801b60208201526001600160a01b037f00000000000000000000000000000000000000000000000000000000000000001693506310f13a8c9250869161073490890189610f64565b6040518563ffffffff1660e01b81526004016107539493929190610fa7565b5f604051808303815f87803b15801561076a575f5ffd5b505af115801561077c573d5f5f3e3d5ffd5b505050507f00000000000000000000000000000000000000000000000000000000000000006001600160a01b03166310f13a8c846040518060400160405280600b81526020016a0c19d7dd1bdad95b97da5960aa1b8152508780606001906107e49190610f64565b6040518563ffffffff1660e01b81526004016108039493929190610fa7565b5f604051808303815f87803b15801561081a575f5ffd5b505af115801561082c573d5f5f3e3d5ffd5b505050507f00000000000000000000000000000000000000000000000000000000000000006001600160a01b03166310f13a8c8460405180604001604052806005815260200164707269636560d81b81525087806080019061088e9190610f64565b6040518563ffffffff1660e01b81526004016108ad9493929190610fa7565b5f604051808303815f87803b1580156108c4575f5ffd5b505af11580156108d6573d5f5f3e3d5ffd5b505050507f00000000000000000000000000000000000000000000000000000000000000006001600160a01b03166310f13a8c84604051806040016040528060078152602001663b32b939b4b7b760c91b815250878060a0019061093a9190610f64565b6040518563ffffffff1660e01b81526004016109599493929190610fa7565b5f604051808303815f87803b158015610970575f5ffd5b505af1158015610982573d5f5f3e3d5ffd5b5050604051637921219560e11b8152306004820152336024820152604481018690526001606482015260a060848201525f60a48201527f00000000000000000000000000000000000000000000000000000000000000006001600160a01b0316925063f242432a915060c4015f604051808303815f87803b158015610a05575f5ffd5b505af1158015610a17573d5f5f3e3d5ffd5b50505050336001600160a01b0316837f645ab9ff5e1e03211449ee714a425ea6f465d9c20d13976b80a0ae3c8387c7478888604051610a57929190610fdd565b60405180910390a350509392505050565b5f82828080601f0160208091040260200160405190810160405280939291908181526020018383808284375f920191909152505082519293505060038210905080610ab35750603f81115b15610ad157604051633d36cb8d60e01b815260040160405180910390fd5b5f5b81811015610b96575f838281518110610aee57610aee610ff8565b01602001516001600160f81b03191690505f606160f81b8210801590610b225750603d60f91b6001600160f81b0319831611155b80610b545750600360fc1b6001600160f81b0319831610801590610b545750603960f81b6001600160f81b0319831611155b80610b6c5750602d60f81b6001600160f81b03198316145b905080610b8c57604051633d36cb8d60e01b815260040160405180910390fd5b5050600101610ad3565b5050505050565b5f60208284031215610bad575f5ffd5b81356001600160e01b031981168114610bc4575f5ffd5b9392505050565b5f81518084528060208401602086015e5f602082860101526020601f19601f83011685010191505092915050565b602081525f610bc46020830184610bcb565b6001600160a01b0381168114610c1f575f5ffd5b50565b5f5f83601f840112610c32575f5ffd5b50813567ffffffffffffffff811115610c49575f5ffd5b6020830191508360208260051b8501011115610c63575f5ffd5b9250929050565b5f5f83601f840112610c7a575f5ffd5b50813567ffffffffffffffff811115610c91575f5ffd5b602083019150836020828501011115610c63575f5ffd5b5f5f5f5f5f5f5f5f60a0898b031215610cbf575f5ffd5b8835610cca81610c0b565b97506020890135610cda81610c0b565b9650604089013567ffffffffffffffff811115610cf5575f5ffd5b610d018b828c01610c22565b909750955050606089013567ffffffffffffffff811115610d20575f5ffd5b610d2c8b828c01610c22565b909550935050608089013567ffffffffffffffff811115610d4b575f5ffd5b610d578b828c01610c6a565b999c989b5096995094979396929594505050565b5f5f5f60408486031215610d7d575f5ffd5b833567ffffffffffffffff811115610d93575f5ffd5b610d9f86828701610c6a565b909450925050602084013567ffffffffffffffff811115610dbe575f5ffd5b840160c08187031215610dcf575f5ffd5b809150509250925092565b5f5f5f5f5f5f60a08789031215610def575f5ffd5b8635610dfa81610c0b565b95506020870135610e0a81610c0b565b94506040870135935060608701359250608087013567ffffffffffffffff811115610e33575f5ffd5b610e3f89828a01610c6a565b979a9699509497509295939492505050565b5f5f5f60608486031215610e63575f5ffd5b8351610e6e81610c0b565b602085015190935063ffffffff81168114610e87575f5ffd5b604085015190925067ffffffffffffffff81168114610dcf575f5ffd5b5f60208284031215610eb4575f5ffd5b81518015158114610bc4575f5ffd5b81835281816020850137505f828201602090810191909152601f909101601f19169091010190565b88815260e060208201525f610f0460e08301898b610ec3565b6001600160a01b03978816604084015295909616606082015267ffffffffffffffff938416608082015263ffffffff9290921660a083015290911660c090910152949350505050565b5f60208284031215610f5d575f5ffd5b5051919050565b5f5f8335601e19843603018112610f79575f5ffd5b83018035915067ffffffffffffffff821115610f93575f5ffd5b602001915036819003821315610c63575f5ffd5b848152606060208201525f610fbf6060830186610bcb565b8281036040840152610fd2818587610ec3565b979650505050505050565b602081525f610ff0602083018486610ec3565b949350505050565b634e487b7160e01b5f52603260045260245ffdfea2646970667358221220ea3b07da3419cb4a8d3f7dedf1d79d164e576f4eabb2fe31f0ea30ac59e02e6364736f6c634300081c0033",
  "linkReferences": {},
  "deployedLinkReferences": {},
  "immutableReferences": {
    "68": [
      {
        "length": 32,
        "start": 490
      },
      {
        "length": 32,
        "start": 888
      },
      {
        "length": 32,
        "start": 1044
      },
      {
        "length": 32,
        "start": 1204
      },
      {
        "length": 32,
        "start": 2490
      }
    ],
    "71": [
      {
        "length": 32,
        "start": 252
      },
      {
        "length": 32,
        "start": 1289
      },
      {
        "length": 32,
        "start": 1445
      },
      {
        "length": 32,
        "start": 1574
      },
      {
        "length": 32,
        "start": 1789
      },
      {
        "length": 32,
        "start": 1922
      },
      {
        "length": 32,
        "start": 2098
      },
      {
        "length": 32,
        "start": 2268
      }
    ],
    "73": [
      {
        "length": 32,
        "start": 732
      },
      {
        "length": 32,
        "start": 846
      },
      {
        "length": 32,
        "start": 1249
      }
    ]
  },
  "inputSourceName": "project/contracts/SpecialistRegistrar.sol",
  "buildInfoId": "solc-0_8_28-a9453f4be451ed221679372ee4845f424183b448"
}