{
  "_format": "hh3-artifact-1",
  "contractName": "TaskMarket",
  "sourceName": "contracts/TaskMarket.sol",
  "abi": [
    {
      "inputs": [
        {
          "internalType": "address",
          "name": "_nameWrapper",
          "type": "address"
        },
        {
          "internalType": "address",
          "name": "_resolver",
          "type": "address"
        },
        {
          "internalType": "bytes32",
          "name": "_parentNode",
          "type": "bytes32"
        }
      ],
      "stateMutability": "nonpayable",
      "type": "constructor"
    },
    {
      "inputs": [],
      "name": "AlreadySignedOn",
      "type": "error"
    },
    {
      "inputs": [],
      "name": "DeadlineInPast",
      "type": "error"
    },
    {
      "inputs": [],
      "name": "DeadlinePassed",
      "type": "error"
    },
    {
      "inputs": [],
      "name": "EmptyDescription",
      "type": "error"
    },
    {
      "inputs": [],
      "name": "HasSpecialists",
      "type": "error"
    },
    {
      "inputs": [],
      "name": "InvalidMaxSpecialists",
      "type": "error"
    },
    {
      "inputs": [],
      "name": "LabelAlreadyTaken",
      "type": "error"
    },
    {
      "inputs": [],
      "name": "NoBudget",
      "type": "error"
    },
    {
      "inputs": [],
      "name": "NoSpecialists",
      "type": "error"
    },
    {
      "inputs": [],
      "name": "NotCreator",
      "type": "error"
    },
    {
      "inputs": [],
      "name": "NothingToWithdraw",
      "type": "error"
    },
    {
      "inputs": [],
      "name": "RegistrarNotApproved",
      "type": "error"
    },
    {
      "inputs": [
        {
          "internalType": "uint256",
          "name": "value",
          "type": "uint256"
        },
        {
          "internalType": "uint256",
          "name": "length",
          "type": "uint256"
        }
      ],
      "name": "StringsInsufficientHexLength",
      "type": "error"
    },
    {
      "inputs": [],
      "name": "TaskFull",
      "type": "error"
    },
    {
      "inputs": [],
      "name": "TaskNotOpen",
      "type": "error"
    },
    {
      "inputs": [],
      "name": "TransferFailed",
      "type": "error"
    },
    {
      "anonymous": false,
      "inputs": [
        {
          "indexed": true,
          "internalType": "uint256",
          "name": "taskId",
          "type": "uint256"
        },
        {
          "indexed": true,
          "internalType": "address",
          "name": "specialist",
          "type": "address"
        }
      ],
      "name": "SpecialistSignedOn",
      "type": "event"
    },
    {
      "anonymous": false,
      "inputs": [
        {
          "indexed": true,
          "internalType": "uint256",
          "name": "taskId",
          "type": "uint256"
        }
      ],
      "name": "TaskCancelled",
      "type": "event"
    },
    {
      "anonymous": false,
      "inputs": [
        {
          "indexed": true,
          "internalType": "uint256",
          "name": "taskId",
          "type": "uint256"
        },
        {
          "indexed": false,
          "internalType": "uint256",
          "name": "perSpecialistPayout",
          "type": "uint256"
        }
      ],
      "name": "TaskCompleted",
      "type": "event"
    },
    {
      "anonymous": false,
      "inputs": [
        {
          "indexed": true,
          "internalType": "uint256",
          "name": "taskId",
          "type": "uint256"
        },
        {
          "indexed": true,
          "internalType": "address",
          "name": "creator",
          "type": "address"
        },
        {
          "indexed": true,
          "internalType": "bytes32",
          "name": "ensNode",
          "type": "bytes32"
        },
        {
          "indexed": false,
          "internalType": "string",
          "name": "label",
          "type": "string"
        }
      ],
      "name": "TaskPosted",
      "type": "event"
    },
    {
      "anonymous": false,
      "inputs": [
        {
          "indexed": true,
          "internalType": "address",
          "name": "who",
          "type": "address"
        },
        {
          "indexed": false,
          "internalType": "uint256",
          "name": "amount",
          "type": "uint256"
        }
      ],
      "name": "Withdrawal",
      "type": "event"
    },
    {
      "inputs": [
        {
          "internalType": "uint256",
          "name": "taskId",
          "type": "uint256"
        }
      ],
      "name": "cancelTask",
      "outputs": [],
      "stateMutability": "nonpayable",
      "type": "function"
    },
    {
      "inputs": [
        {
          "internalType": "uint256",
          "name": "taskId",
          "type": "uint256"
        }
      ],
      "name": "completeTask",
      "outputs": [],
      "stateMutability": "nonpayable",
      "type": "function"
    },
    {
      "inputs": [
        {
          "internalType": "uint256",
          "name": "taskId",
          "type": "uint256"
        }
      ],
      "name": "getTask",
      "outputs": [
        {
          "components": [
            {
              "internalType": "address",
              "name": "creator",
              "type": "address"
            },
            {
              "internalType": "string",
              "name": "description",
              "type": "string"
            },
            {
              "internalType": "string",
              "name": "skillTags",
              "type": "string"
            },
            {
              "internalType": "uint256",
              "name": "budget",
              "type": "uint256"
            },
            {
              "internalType": "uint64",
              "name": "deadline",
              "type": "uint64"
            },
            {
              "internalType": "uint8",
              "name": "maxSpecialists",
              "type": "uint8"
            },
            {
              "internalType": "enum TaskMarket.Status",
              "name": "status",
              "type": "uint8"
            },
            {
              "internalType": "bytes32",
              "name": "ensNode",
              "type": "bytes32"
            }
          ],
          "internalType": "struct TaskMarket.Task",
          "name": "",
          "type": "tuple"
        }
      ],
      "stateMutability": "view",
      "type": "function"
    },
    {
      "inputs": [
        {
          "internalType": "uint256",
          "name": "taskId",
          "type": "uint256"
        }
      ],
      "name": "getTaskSpecialists",
      "outputs": [
        {
          "internalType": "address[]",
          "name": "",
          "type": "address[]"
        }
      ],
      "stateMutability": "view",
      "type": "function"
    },
    {
      "inputs": [
        {
          "internalType": "uint256",
          "name": "",
          "type": "uint256"
        },
        {
          "internalType": "address",
          "name": "",
          "type": "address"
        }
      ],
      "name": "hasSignedOn",
      "outputs": [
        {
          "internalType": "bool",
          "name": "",
          "type": "bool"
        }
      ],
      "stateMutability": "view",
      "type": "function"
    },
    {
      "inputs": [],
      "name": "nameWrapper",
      "outputs": [
        {
          "internalType": "contract INameWrapper",
          "name": "",
          "type": "address"
        }
      ],
      "stateMutability": "view",
      "type": "function"
    },
    {
      "inputs": [
        {
          "internalType": "address",
          "name": "",
          "type": "address"
        },
        {
          "internalType": "address",
          "name": "",
          "type": "address"
        },
        {
          "internalType": "uint256[]",
          "name": "",
          "type": "uint256[]"
        },
        {
          "internalType": "uint256[]",
          "name": "",
          "type": "uint256[]"
        },
        {
          "internalType": "bytes",
          "name": "",
          "type": "bytes"
        }
      ],
      "name": "onERC1155BatchReceived",
      "outputs": [
        {
          "internalType": "bytes4",
          "name": "",
          "type": "bytes4"
        }
      ],
      "stateMutability": "pure",
      "type": "function"
    },
    {
      "inputs": [
        {
          "internalType": "address",
          "name": "",
          "type": "address"
        },
        {
          "internalType": "address",
          "name": "",
          "type": "address"
        },
        {
          "internalType": "uint256",
          "name": "",
          "type": "uint256"
        },
        {
          "internalType": "uint256",
          "name": "",
          "type": "uint256"
        },
        {
          "internalType": "bytes",
          "name": "",
          "type": "bytes"
        }
      ],
      "name": "onERC1155Received",
      "outputs": [
        {
          "internalType": "bytes4",
          "name": "",
          "type": "bytes4"
        }
      ],
      "stateMutability": "pure",
      "type": "function"
    },
    {
      "inputs": [],
      "name": "parentNode",
      "outputs": [
        {
          "internalType": "bytes32",
          "name": "",
          "type": "bytes32"
        }
      ],
      "stateMutability": "view",
      "type": "function"
    },
    {
      "inputs": [
        {
          "internalType": "string",
          "name": "description",
          "type": "string"
        },
        {
          "internalType": "string",
          "name": "skillTags",
          "type": "string"
        },
        {
          "internalType": "uint64",
          "name": "deadline",
          "type": "uint64"
        },
        {
          "internalType": "uint8",
          "name": "maxSpecialists",
          "type": "uint8"
        }
      ],
      "name": "postTask",
      "outputs": [
        {
          "internalType": "uint256",
          "name": "taskId",
          "type": "uint256"
        },
        {
          "internalType": "bytes32",
          "name": "ensNode",
          "type": "bytes32"
        }
      ],
      "stateMutability": "payable",
      "type": "function"
    },
    {
      "inputs": [],
      "name": "resolver",
      "outputs": [
        {
          "internalType": "contract IPublicResolver",
          "name": "",
          "type": "address"
        }
      ],
      "stateMutability": "view",
      "type": "function"
    },
    {
      "inputs": [
        {
          "internalType": "uint256",
          "name": "taskId",
          "type": "uint256"
        }
      ],
      "name": "signOn",
      "outputs": [],
      "stateMutability": "nonpayable",
      "type": "function"
    },
    {
      "inputs": [
        {
          "internalType": "bytes4",
          "name": "interfaceId",
          "type": "bytes4"
        }
      ],
      "name": "supportsInterface",
      "outputs": [
        {
          "internalType": "bool",
          "name": "",
          "type": "bool"
        }
      ],
      "stateMutability": "pure",
      "type": "function"
    },
    {
      "inputs": [
        {
          "internalType": "uint256",
          "name": "taskId",
          "type": "uint256"
        }
      ],
      "name": "taskLabel",
      "outputs": [
        {
          "internalType": "string",
          "name": "",
          "type": "string"
        }
      ],
      "stateMutability": "pure",
      "type": "function"
    },
    {
      "inputs": [],
      "name": "tasksCount",
      "outputs": [
        {
          "internalType": "uint256",
          "name": "",
          "type": "uint256"
        }
      ],
      "stateMutability": "view",
      "type": "function"
    },
    {
      "inputs": [],
      "name": "withdraw",
      "outputs": [],
      "stateMutability": "nonpayable",
      "type": "function"
    },
    {
      "inputs": [
        {
          "internalType": "address",
          "name": "",
          "type": "address"
        }
      ],
      "name": "withdrawable",
      "outputs": [
        {
          "internalType": "uint256",
          "name": "",
          "type": "uint256"
        }
      ],
      "stateMutability": "view",
      "type": "function"
    }
  ],
  "bytecode": "0x60e060405234801561000f575f5ffd5b5060405161243138038061243183398101604081905261002e91610064565b6001600160a01b03928316608052911660a05260c05261009d565b80516001600160a01b038116811461005f575f5ffd5b919050565b5f5f5f60608486031215610076575f5ffd5b61007f84610049565b925061008d60208501610049565b9150604084015190509250925092565b60805160a05160c0516122fa6101375f395f81816103d801528181610a1001528181610b910152610cd301525f8181610173015281816108e401528181610cf901528181610d6b01528181610dfb01528181610e6501528181610ee801528181610f7401528181611015015261159601525f81816102cb01528181610a3a01528181610ad601528181610c000152610ca601526122fa5ff3fe6080604052600436106100fa575f3560e01c806381387c3b11610092578063bc197c8111610062578063bc197c811461030a578063ce513b6f14610351578063e1e295581461037c578063f23a6e611461039b578063f3068a00146103c7575f5ffd5b806381387c3b14610273578063920a1a8e1461029b578063a8e5fbc0146102ba578063bb6a0f07146102ed575f5ffd5b8063235d538d116100cd578063235d538d146101d95780633ccfd60b14610205578063476719941461021b5780637eec20a814610254575f5ffd5b806301908432146100fe57806301ffc9a71461013357806304f3bcec146101625780631d65e77e146101ad575b5f5ffd5b348015610109575f5ffd5b5061011d61011836600461191c565b6103fa565b60405161012a9190611933565b60405180910390f35b34801561013e575f5ffd5b5061015261014d36600461197e565b610463565b604051901515815260200161012a565b34801561016d575f5ffd5b506101957f000000000000000000000000000000000000000000000000000000000000000081565b6040516001600160a01b03909116815260200161012a565b3480156101b8575f5ffd5b506101cc6101c736600461191c565b610499565b60405161012a9190611a0e565b3480156101e4575f5ffd5b506101f86101f336600461191c565b6106af565b60405161012a9190611ab9565b348015610210575f5ffd5b506102196106e0565b005b348015610226575f5ffd5b50610152610235366004611ae2565b600260209081525f928352604080842090915290825290205460ff1681565b34801561025f575f5ffd5b5061021961026e36600461191c565b6107be565b610286610281366004611b68565b610973565b6040805192835260208301919091520161012a565b3480156102a6575f5ffd5b506102196102b536600461191c565b611265565b3480156102c5575f5ffd5b506101957f000000000000000000000000000000000000000000000000000000000000000081565b3480156102f8575f5ffd5b505f545b60405190815260200161012a565b348015610315575f5ffd5b50610338610324366004611c3f565b63bc197c8160e01b98975050505050505050565b6040516001600160e01b0319909116815260200161012a565b34801561035c575f5ffd5b506102fc61036b366004611cff565b60036020525f908152604090205481565b348015610387575f5ffd5b5061021961039636600461191c565b6113e1565b3480156103a6575f5ffd5b506103386103b5366004611d1a565b63f23a6e6160e01b9695505050505050565b3480156103d2575f5ffd5b506102fc7f000000000000000000000000000000000000000000000000000000000000000081565b5f8181526001602090815260409182902080548351818402810184019094528084526060939283018282801561045757602002820191905f5260205f20905b81546001600160a01b03168152600190910190602001808311610439575b50505050509050919050565b5f6301ffc9a760e01b6001600160e01b0319831614806104935750630271189760e51b6001600160e01b03198316145b92915050565b60408051610100810182525f8082526060602083018190529282018390529181018290526080810182905260a0810182905260c0810182905260e08101919091525f82815481106104ec576104ec611d90565b5f91825260209182902060408051610100810190915260069092020180546001600160a01b03168252600181018054929391929184019161052c90611da4565b80601f016020809104026020016040519081016040528092919081815260200182805461055890611da4565b80156105a35780601f1061057a576101008083540402835291602001916105a3565b820191905f5260205f20905b81548152906001019060200180831161058657829003601f168201915b505050505081526020016002820180546105bc90611da4565b80601f01602080910402602001604051908101604052809291908181526020018280546105e890611da4565b80156106335780601f1061060a57610100808354040283529160200191610633565b820191905f5260205f20905b81548152906001019060200180831161061657829003601f168201915b50505091835250506003820154602082015260048201546001600160401b038116604083015260ff600160401b820481166060840152608090920191600160481b909104166002811115610689576106896119da565b600281111561069a5761069a6119da565b81526020016005820154815250509050919050565b60606106ba82611639565b6040516020016106ca9190611ddc565b6040516020818303038152906040529050919050565b335f908152600360205260408120549081900361071057604051630686827b60e51b815260040160405180910390fd5b335f818152600360205260408082208290555190919083908381818185875af1925050503d805f811461075e576040519150601f19603f3d011682016040523d82523d5f602084013e610763565b606091505b5050905080610785576040516312171d8360e31b815260040160405180910390fd5b60405182815233907f7fcf532c15f0a6db0bd6d0e038bea71d30d808c7d98cb3bf7268a95bf5081b659060200160405180910390a25050565b5f5f82815481106107d1576107d1611d90565b5f918252602090912060069091020180549091506001600160a01b0316331461080d576040516393687c0b60e01b815260040160405180910390fd5b5f6004820154600160481b900460ff16600281111561082e5761082e6119da565b1461084c5760405163fe89421760e01b815260040160405180910390fd5b5f828152600160205260409020541561087857604051631f4d70b360e31b815260040160405180910390fd5b60048101805460ff60481b1916690200000000000000000017905560038082015482546001600160a01b03165f908152602092909252604082208054919290916108c3908490611e17565b9091555050600581015460405163043c4ea360e21b81526001600160a01b037f000000000000000000000000000000000000000000000000000000000000000016916310f13a8c916109189190600401611e2a565b5f604051808303815f87803b15801561092f575f5ffd5b505af1158015610941573d5f5f3e3d5ffd5b50506040518492507fc6eacc3aa5b2aa77b5a826b832a804ca0b71830ec74f9aa57a15edd978c31ed691505f90a25050565b5f808681036109955760405163d937d5df60e01b815260040160405180910390fd5b42846001600160401b0316116109be5760405163017d800b60e71b815260040160405180910390fd5b8260ff165f036109e1576040516360481b4960e01b815260040160405180910390fd5b345f03610a015760405163846694db60e01b815260040160405180910390fd5b604051630178fe3f60e01b81527f000000000000000000000000000000000000000000000000000000000000000060048201525f9081907f00000000000000000000000000000000000000000000000000000000000000006001600160a01b031690630178fe3f90602401606060405180830381865afa158015610a87573d5f5f3e3d5ffd5b505050506040513d601f19601f82011682018060405250810190610aab9190611e7e565b60405163e985e9c560e01b81526001600160a01b0380851660048301523060248301529395509093507f00000000000000000000000000000000000000000000000000000000000000009092169163e985e9c59150604401602060405180830381865afa158015610b1e573d5f5f3e3d5ffd5b505050506040513d601f19601f82011682018060405250810190610b429190611ed0565b610b5f5760405163bcedfd2360e01b815260040160405180910390fd5b5f80549450610b6d85611639565b604051602001610b7d9190611ddc565b60405160208183030381529060405290505f7f00000000000000000000000000000000000000000000000000000000000000008280519060200120604051602001610bd2929190918252602082015260400190565b60408051808303601f1901815290829052805160209091012063fd0cd0d960e01b82526004820181905291507f00000000000000000000000000000000000000000000000000000000000000006001600160a01b03169063fd0cd0d990602401602060405180830381865afa158015610c4d573d5f5f3e3d5ffd5b505050506040513d601f19601f82011682018060405250810190610c719190611ed0565b15610c8f57604051632c9a84b160e01b815260040160405180910390fd5b6040516309306bd160e21b81526001600160a01b037f000000000000000000000000000000000000000000000000000000000000000016906324c1af4490610d27907f000000000000000000000000000000000000000000000000000000000000000090869030907f0000000000000000000000000000000000000000000000000000000000000000905f9081908c90600401611eef565b6020604051808303815f875af1158015610d43573d5f5f3e3d5ffd5b505050506040513d601f19601f82011682018060405250810190610d679190611f4e565b94507f00000000000000000000000000000000000000000000000000000000000000006001600160a01b03166310f13a8c868e8e6040518463ffffffff1660e01b8152600401610db993929190611f8d565b5f604051808303815f87803b158015610dd0575f5ffd5b505af1158015610de2573d5f5f3e3d5ffd5b505060405163043c4ea360e21b81526001600160a01b037f00000000000000000000000000000000000000000000000000000000000000001692506310f13a8c9150610e369088908e908e90600401611fd1565b5f604051808303815f87803b158015610e4d575f5ffd5b505af1158015610e5f573d5f5f3e3d5ffd5b505050507f00000000000000000000000000000000000000000000000000000000000000006001600160a01b03166310f13a8c86610e9c34611639565b6040518363ffffffff1660e01b8152600401610eb9929190612007565b5f604051808303815f87803b158015610ed0575f5ffd5b505af1158015610ee2573d5f5f3e3d5ffd5b505050507f00000000000000000000000000000000000000000000000000000000000000006001600160a01b03166310f13a8c86610f288b6001600160401b0316611639565b6040518363ffffffff1660e01b8152600401610f4592919061203c565b5f604051808303815f87803b158015610f5c575f5ffd5b505af1158015610f6e573d5f5f3e3d5ffd5b505050507f00000000000000000000000000000000000000000000000000000000000000006001600160a01b03166310f13a8c86610fb6336001600160a01b031660146116c8565b6040518363ffffffff1660e01b8152600401610fd3929190612073565b5f604051808303815f87803b158015610fea575f5ffd5b505af1158015610ffc573d5f5f3e3d5ffd5b505060405163043c4ea360e21b81526001600160a01b037f00000000000000000000000000000000000000000000000000000000000000001692506310f13a8c915061104c9088906004016120a9565b5f604051808303815f87803b158015611063575f5ffd5b505af1158015611075573d5f5f3e3d5ffd5b505050505f604051806101000160405280336001600160a01b031681526020018e8e8080601f0160208091040260200160405190810160405280939291908181526020018383808284375f92019190915250505090825250604080516020601f8f018190048102820181019092528d815291810191908e908e90819084018382808284375f9201829052509385525050346020840152506001600160401b038c16604083015260ff8b166060830152608090910190815260209081018890528254600180820185555f94855293829020835160069092020180546001600160a01b0319166001600160a01b039092169190911781559082015191929091908201906111809082612158565b50604082015160028201906111959082612158565b5060608201516003820155608082015160048201805460a085015160ff16600160401b0268ffffffffffffffffff199091166001600160401b03909316929092179190911780825560c0840151919060ff60481b1916600160481b836002811115611202576112026119da565b021790555060e08201518160050155505084336001600160a01b0316877f0cb87d87355ab99cd4aa0bdd94a8e8f5d4ca9a47dbe5d11da014995f38d1aaae8560405161124e9190611ab9565b60405180910390a450505050965096945050505050565b5f5f828154811061127857611278611d90565b5f9182526020822060069091020191506004820154600160481b900460ff1660028111156112a8576112a86119da565b146112c65760405163fe89421760e01b815260040160405180910390fd5b60048101546001600160401b03164211156112f45760405163387b2e5560e11b815260040160405180910390fd5b5f82815260016020526040902060048201548154600160401b90910460ff161161133157604051631fb94a6d60e31b815260040160405180910390fd5b5f83815260026020908152604080832033845290915290205460ff161561136b576040516381f0b7ab60e01b815260040160405180910390fd5b5f83815260026020908152604080832033808552908352818420805460ff191660019081179091558554908101865585855292842090920180546001600160a01b0319168317905551909185917f79d5a8872197950b927e1fd5de1869c10118197c903ebc2482b6ba49d6beea049190a3505050565b5f5f82815481106113f4576113f4611d90565b5f918252602090912060069091020180549091506001600160a01b03163314611430576040516393687c0b60e01b815260040160405180910390fd5b5f6004820154600160481b900460ff166002811115611451576114516119da565b1461146f5760405163fe89421760e01b815260040160405180910390fd5b5f828152600160205260408120805490918190036114a057604051630184bafd60e31b815260040160405180910390fd5b60048301805460ff60481b1916600160481b17905560038301545f906114c7908390612212565b90505f5b82811015611529578160035f8684815481106114e9576114e9611d90565b5f9182526020808320909101546001600160a01b031683528201929092526040018120805490919061151c908490611e17565b90915550506001016114cb565b505f6115358383612231565b85600301546115449190612248565b9050801561157a5784546001600160a01b03165f9081526003602052604081208054839290611574908490611e17565b90915550505b600585015460405163043c4ea360e21b81526001600160a01b037f000000000000000000000000000000000000000000000000000000000000000016916310f13a8c916115ca919060040161225b565b5f604051808303815f87803b1580156115e1575f5ffd5b505af11580156115f3573d5f5f3e3d5ffd5b50505050857ff9c405f91e34dcd1dc136cf6992ada4a8c24a2803e0fab7546364c64dac7ba2b8360405161162991815260200190565b60405180910390a2505050505050565b60605f61164583611845565b60010190505f816001600160401b03811115611663576116636120f8565b6040519080825280601f01601f19166020018201604052801561168d576020820181803683370190505b5090508181016020015b5f19016f181899199a1a9b1b9c1cb0b131b232b360811b600a86061a8153600a850494508461169757509392505050565b6060825f6116d7846002612231565b6116e2906002611e17565b6001600160401b038111156116f9576116f96120f8565b6040519080825280601f01601f191660200182016040528015611723576020820181803683370190505b509050600360fc1b815f8151811061173d5761173d611d90565b60200101906001600160f81b03191690815f1a905350600f60fb1b8160018151811061176b5761176b611d90565b60200101906001600160f81b03191690815f1a9053505f61178d856002612231565b611798906001611e17565b90505b600181111561180f576f181899199a1a9b1b9c1cb0b131b232b360811b83600f16601081106117cc576117cc611d90565b1a60f81b8282815181106117e2576117e2611d90565b60200101906001600160f81b03191690815f1a90535060049290921c91611808816122af565b905061179b565b50811561183d5760405163e22e27eb60e01b8152600481018690526024810185905260440160405180910390fd5b949350505050565b5f8072184f03e93ff9f4daa797ed6e38ed64bf6a1f0160401b83106118835772184f03e93ff9f4daa797ed6e38ed64bf6a1f0160401b830492506040015b6d04ee2d6d415b85acef810000000083106118af576d04ee2d6d415b85acef8100000000830492506020015b662386f26fc1000083106118cd57662386f26fc10000830492506010015b6305f5e10083106118e5576305f5e100830492506008015b61271083106118f957612710830492506004015b6064831061190b576064830492506002015b600a83106104935760010192915050565b5f6020828403121561192c575f5ffd5b5035919050565b602080825282518282018190525f918401906040840190835b818110156119735783516001600160a01b031683526020938401939092019160010161194c565b509095945050505050565b5f6020828403121561198e575f5ffd5b81356001600160e01b0319811681146119a5575f5ffd5b9392505050565b5f81518084528060208401602086015e5f602082860101526020601f19601f83011685010191505092915050565b634e487b7160e01b5f52602160045260245ffd5b60038110611a0a57634e487b7160e01b5f52602160045260245ffd5b9052565b602080825282516001600160a01b03168282015282015161010060408301525f90611a3d6101208401826119ac565b90506040840151601f19848303016060850152611a5a82826119ac565b915050606084015160808401526080840151611a8160a08501826001600160401b03169052565b5060a084015160ff811660c08501525060c0840151611aa360e08501826119ee565b5060e08401516101008401528091505092915050565b602081525f6119a560208301846119ac565b6001600160a01b0381168114611adf575f5ffd5b50565b5f5f60408385031215611af3575f5ffd5b823591506020830135611b0581611acb565b809150509250929050565b5f5f83601f840112611b20575f5ffd5b5081356001600160401b03811115611b36575f5ffd5b602083019150836020828501011115611b4d575f5ffd5b9250929050565b6001600160401b0381168114611adf575f5ffd5b5f5f5f5f5f5f60808789031215611b7d575f5ffd5b86356001600160401b03811115611b92575f5ffd5b611b9e89828a01611b10565b90975095505060208701356001600160401b03811115611bbc575f5ffd5b611bc889828a01611b10565b9095509350506040870135611bdc81611b54565b9150606087013560ff81168114611bf1575f5ffd5b809150509295509295509295565b5f5f83601f840112611c0f575f5ffd5b5081356001600160401b03811115611c25575f5ffd5b6020830191508360208260051b8501011115611b4d575f5ffd5b5f5f5f5f5f5f5f5f60a0898b031215611c56575f5ffd5b8835611c6181611acb565b97506020890135611c7181611acb565b965060408901356001600160401b03811115611c8b575f5ffd5b611c978b828c01611bff565b90975095505060608901356001600160401b03811115611cb5575f5ffd5b611cc18b828c01611bff565b90955093505060808901356001600160401b03811115611cdf575f5ffd5b611ceb8b828c01611b10565b999c989b5096995094979396929594505050565b5f60208284031215611d0f575f5ffd5b81356119a581611acb565b5f5f5f5f5f5f60a08789031215611d2f575f5ffd5b8635611d3a81611acb565b95506020870135611d4a81611acb565b9450604087013593506060870135925060808701356001600160401b03811115611d72575f5ffd5b611d7e89828a01611b10565b979a9699509497509295939492505050565b634e487b7160e01b5f52603260045260245ffd5b600181811c90821680611db857607f821691505b602082108103611dd657634e487b7160e01b5f52602260045260245ffd5b50919050565b647461736b2d60d81b81525f82518060208501600585015e5f920160050191825250919050565b634e487b7160e01b5f52601160045260245ffd5b8082018082111561049357610493611e03565b818152606060208201525f611e5560608301600681526573746174757360d01b602082015260400190565b828103604093840152600981526818d85b98d95b1b195960ba1b60208201529190910192915050565b5f5f5f60608486031215611e90575f5ffd5b8351611e9b81611acb565b602085015190935063ffffffff81168114611eb4575f5ffd5b6040850151909250611ec581611b54565b809150509250925092565b5f60208284031215611ee0575f5ffd5b815180151581146119a5575f5ffd5b87815260e060208201525f611f0760e08301896119ac565b6001600160a01b0397881660408401529590961660608201526001600160401b03938416608082015263ffffffff9290921660a083015290911660c0909101529392505050565b5f60208284031215611f5e575f5ffd5b5051919050565b81835281816020850137505f828201602090810191909152601f909101601f19169091010190565b83815260606020820152600b60608201526a3232b9b1b934b83a34b7b760a91b608082015260a060408201525f611fc860a083018486611f65565b95945050505050565b838152606060208201526006606082015265736b696c6c7360d01b608082015260a060408201525f611fc860a083018486611f65565b828152606060208201526006606082015265189d5919d95d60d21b608082015260a060408201525f61183d60a08301846119ac565b828152606060208201526008606082015267646561646c696e6560c01b608082015260a060408201525f61183d60a08301846119ac565b82815260606020820152600760608201526631b932b0ba37b960c91b608082015260a060408201525f61183d60a08301846119ac565b818152606060208201525f6120d460608301600681526573746174757360d01b602082015260400190565b828103604093840152600481526337b832b760e11b60208201529190910192915050565b634e487b7160e01b5f52604160045260245ffd5b601f82111561215357805f5260205f20601f840160051c810160208510156121315750805b601f840160051c820191505b81811015612150575f815560010161213d565b50505b505050565b81516001600160401b03811115612171576121716120f8565b6121858161217f8454611da4565b8461210c565b6020601f8211600181146121b7575f83156121a05750848201515b5f19600385901b1c1916600184901b178455612150565b5f84815260208120601f198516915b828110156121e657878501518255602094850194600190920191016121c6565b508482101561220357868401515f19600387901b60f8161c191681555b50505050600190811b01905550565b5f8261222c57634e487b7160e01b5f52601260045260245ffd5b500490565b808202811582820484141761049357610493611e03565b8181038181111561049357610493611e03565b818152606060208201525f61228660608301600681526573746174757360d01b602082015260400190565b828103604093840152600981526818dbdb5c1b195d195960ba1b60208201529190910192915050565b5f816122bd576122bd611e03565b505f19019056fea26469706673582212208ee2b0d8a066948f110544b89af7b00e2924b68da6437bbe9a8a58d3d485346264736f6c634300081c0033",
  "linkReferences": {},
  "deployedLinkReferences": {},
  "immutableReferences": {
    "5993": [
      {
        "length": 32,
        "start": 715
      },
      {
        "length": 32,
        "start": 2618
      },
      {
        "length": 32,
        "start": 2774
      },
      {
        "length": 32,
        "start": 3072
      },
      {
        "length": 32,
        "start": 3238
      }
    ],
    "5996": [
      {
        "length": 32,
        "start": 371
      },
      {
        "length": 32,
        "start": 2276
      },
      {
        "length": 32,
        "start": 3321
      },
      {
        "length": 32,
        "start": 3435
      },
      {
        "length": 32,
        "start": 3579
      },
      {
        "length": 32,
        "start": 3685
      },
      {
        "length": 32,
        "start": 3816
      },
      {
        "length": 32,
        "start": 3956
      },
      {
        "length": 32,
        "start": 4117
      },
      {
        "length": 32,
        "start": 5526
      }
    ],
    "5998": [
      {
        "length": 32,
        "start": 984
      },
      {
        "length": 32,
        "start": 2576
      },
      {
        "length": 32,
        "start": 2961
      },
      {
        "length": 32,
        "start": 3283
      }
    ]
  },
  "inputSourceName": "project/contracts/TaskMarket.sol",
  "buildInfoId": "solc-0_8_28-311409e3d6b79206904f82c7570fea0c03cc3946"
}