{
  "_format": "hh3-artifact-1",
  "contractName": "SpecialistRegistrar",
  "sourceName": "contracts/SpecialistRegistrar.sol",
  "abi": [
    {
      "inputs": [
        {
          "internalType": "address",
          "name": "_nameWrapper",
          "type": "address"
        },
        {
          "internalType": "address",
          "name": "_resolver",
          "type": "address"
        },
        {
          "internalType": "bytes32",
          "name": "_parentNode",
          "type": "bytes32"
        }
      ],
      "stateMutability": "nonpayable",
      "type": "constructor"
    },
    {
      "inputs": [],
      "name": "InvalidLabel",
      "type": "error"
    },
    {
      "inputs": [],
      "name": "RegistrarNotApproved",
      "type": "error"
    },
    {
      "anonymous": false,
      "inputs": [
        {
          "indexed": true,
          "internalType": "bytes32",
          "name": "node",
          "type": "bytes32"
        },
        {
          "indexed": true,
          "internalType": "address",
          "name": "owner",
          "type": "address"
        },
        {
          "indexed": false,
          "internalType": "string",
          "name": "label",
          "type": "string"
        }
      ],
      "name": "SpecialistRegistered",
      "type": "event"
    },
    {
      "inputs": [],
      "name": "KEY_AXL_PUBKEY",
      "outputs": [
        {
          "internalType": "string",
          "name": "",
          "type": "string"
        }
      ],
      "stateMutability": "view",
      "type": "function"
    },
    {
      "inputs": [],
      "name": "KEY_PRICE",
      "outputs": [
        {
          "internalType": "string",
          "name": "",
          "type": "string"
        }
      ],
      "stateMutability": "view",
      "type": "function"
    },
    {
      "inputs": [],
      "name": "KEY_SKILLS",
      "outputs": [
        {
          "internalType": "string",
          "name": "",
          "type": "string"
        }
      ],
      "stateMutability": "view",
      "type": "function"
    },
    {
      "inputs": [],
      "name": "KEY_TOKEN_ID",
      "outputs": [
        {
          "internalType": "string",
          "name": "",
          "type": "string"
        }
      ],
      "stateMutability": "view",
      "type": "function"
    },
    {
      "inputs": [],
      "name": "KEY_VERSION",
      "outputs": [
        {
          "internalType": "string",
          "name": "",
          "type": "string"
        }
      ],
      "stateMutability": "view",
      "type": "function"
    },
    {
      "inputs": [],
      "name": "KEY_WORKSPACE_URI",
      "outputs": [
        {
          "internalType": "string",
          "name": "",
          "type": "string"
        }
      ],
      "stateMutability": "view",
      "type": "function"
    },
    {
      "inputs": [],
      "name": "getAll",
      "outputs": [
        {
          "components": [
            {
              "internalType": "string",
              "name": "label",
              "type": "string"
            },
            {
              "internalType": "bytes32",
              "name": "node",
              "type": "bytes32"
            },
            {
              "internalType": "address",
              "name": "owner",
              "type": "address"
            }
          ],
          "internalType": "struct SpecialistRegistrar.Registration[]",
          "name": "",
          "type": "tuple[]"
        }
      ],
      "stateMutability": "view",
      "type": "function"
    },
    {
      "inputs": [
        {
          "internalType": "address",
          "name": "owner",
          "type": "address"
        }
      ],
      "name": "getOwned",
      "outputs": [
        {
          "components": [
            {
              "internalType": "string",
              "name": "label",
              "type": "string"
            },
            {
              "internalType": "bytes32",
              "name": "node",
              "type": "bytes32"
            },
            {
              "internalType": "address",
              "name": "owner",
              "type": "address"
            }
          ],
          "internalType": "struct SpecialistRegistrar.Registration[]",
          "name": "",
          "type": "tuple[]"
        }
      ],
      "stateMutability": "view",
      "type": "function"
    },
    {
      "inputs": [],
      "name": "nameWrapper",
      "outputs": [
        {
          "internalType": "contract INameWrapper",
          "name": "",
          "type": "address"
        }
      ],
      "stateMutability": "view",
      "type": "function"
    },
    {
      "inputs": [
        {
          "internalType": "address",
          "name": "",
          "type": "address"
        },
        {
          "internalType": "address",
          "name": "",
          "type": "address"
        },
        {
          "internalType": "uint256[]",
          "name": "",
          "type": "uint256[]"
        },
        {
          "internalType": "uint256[]",
          "name": "",
          "type": "uint256[]"
        },
        {
          "internalType": "bytes",
          "name": "",
          "type": "bytes"
        }
      ],
      "name": "onERC1155BatchReceived",
      "outputs": [
        {
          "internalType": "bytes4",
          "name": "",
          "type": "bytes4"
        }
      ],
      "stateMutability": "pure",
      "type": "function"
    },
    {
      "inputs": [
        {
          "internalType": "address",
          "name": "",
          "type": "address"
        },
        {
          "internalType": "address",
          "name": "",
          "type": "address"
        },
        {
          "internalType": "uint256",
          "name": "",
          "type": "uint256"
        },
        {
          "internalType": "uint256",
          "name": "",
          "type": "uint256"
        },
        {
          "internalType": "bytes",
          "name": "",
          "type": "bytes"
        }
      ],
      "name": "onERC1155Received",
      "outputs": [
        {
          "internalType": "bytes4",
          "name": "",
          "type": "bytes4"
        }
      ],
      "stateMutability": "pure",
      "type": "function"
    },
    {
      "inputs": [
        {
          "internalType": "address",
          "name": "owner",
          "type": "address"
        }
      ],
      "name": "ownedCount",
      "outputs": [
        {
          "internalType": "uint256",
          "name": "",
          "type": "uint256"
        }
      ],
      "stateMutability": "view",
      "type": "function"
    },
    {
      "inputs": [],
      "name": "parentNode",
      "outputs": [
        {
          "internalType": "bytes32",
          "name": "",
          "type": "bytes32"
        }
      ],
      "stateMutability": "view",
      "type": "function"
    },
    {
      "inputs": [
        {
          "internalType": "string",
          "name": "label",
          "type": "string"
        },
        {
          "components": [
            {
              "internalType": "string",
              "name": "axlPubkey",
              "type": "string"
            },
            {
              "internalType": "string",
              "name": "skills",
              "type": "string"
            },
            {
              "internalType": "string",
              "name": "workspaceUri",
              "type": "string"
            },
            {
              "internalType": "string",
              "name": "tokenId",
              "type": "string"
            },
            {
              "internalType": "string",
              "name": "price",
              "type": "string"
            },
            {
              "internalType": "string",
              "name": "version",
              "type": "string"
            }
          ],
          "internalType": "struct SpecialistRegistrar.Records",
          "name": "records",
          "type": "tuple"
        }
      ],
      "name": "register",
      "outputs": [
        {
          "internalType": "bytes32",
          "name": "node",
          "type": "bytes32"
        }
      ],
      "stateMutability": "nonpayable",
      "type": "function"
    },
    {
      "inputs": [],
      "name": "resolver",
      "outputs": [
        {
          "internalType": "contract IPublicResolver",
          "name": "",
          "type": "address"
        }
      ],
      "stateMutability": "view",
      "type": "function"
    },
    {
      "inputs": [
        {
          "internalType": "bytes4",
          "name": "interfaceId",
          "type": "bytes4"
        }
      ],
      "name": "supportsInterface",
      "outputs": [
        {
          "internalType": "bool",
          "name": "",
          "type": "bool"
        }
      ],
      "stateMutability": "pure",
      "type": "function"
    },
    {
      "inputs": [],
      "name": "totalCount",
      "outputs": [
        {
          "internalType": "uint256",
          "name": "",
          "type": "uint256"
        }
      ],
      "stateMutability": "view",
      "type": "function"
    }
  ],
  "bytecode": "0x60e060405234801561000f575f5ffd5b506040516117c63803806117c683398101604081905261002e91610064565b6001600160a01b03928316608052911660a05260c05261009d565b80516001600160a01b038116811461005f575f5ffd5b919050565b5f5f5f60608486031215610076575f5ffd5b61007f84610049565b925061008d60208501610049565b9150604084015190509250925092565b60805160a05160c05161169d6101295f395f818161036b0152818161060d01526107a001525f8181610137015281816107c801528181610864015281816108e5015281816109bc01528181610a4101528181610af101528181610b9b0152610c5e01525f818161025f01528181610637015281816106d3015281816107730152610cf3015261169d5ff3fe608060405234801561000f575f5ffd5b5060043610610106575f3560e01c80637c6885971161009e578063d006da251161006e578063d006da25146102e4578063d37810a01461030e578063eb6ae39514610321578063f23a6e6114610346578063f3068a0014610366575f5ffd5b80637c68859714610247578063a8e5fbc01461025a578063b2087f2d14610281578063bc197c81146102a9575f5ffd5b80631369ac3e116100d95780631369ac3e146101d65780632179045c146101fc57806334eafb111461022057806353ed514314610232575f5ffd5b806301ffc9a71461010a57806304f3bcec146101325780630d780580146101715780630eb7764a146101ad575b5f5ffd5b61011d610118366004611001565b61038d565b60405190151581526020015b60405180910390f35b6101597f000000000000000000000000000000000000000000000000000000000000000081565b6040516001600160a01b039091168152602001610129565b6101a06040518060400160405280601081526020016f30675f776f726b73706163655f75726960801b81525081565b604051610129919061105d565b6101a06040518060400160405280600a81526020016961786c5f7075626b657960b01b81525081565b6101a0604051806040016040528060078152602001663b32b939b4b7b760c91b81525081565b6101a060405180604001604052806005815260200164707269636560d81b81525081565b6001545b604051908152602001610129565b61023a6103c3565b604051610129919061106f565b61023a610255366004611112565b6104d1565b6101597f000000000000000000000000000000000000000000000000000000000000000081565b61022461028f366004611112565b6001600160a01b03165f9081526020819052604090205490565b6102cb6102b73660046111b3565b63bc197c8160e01b98975050505050505050565b6040516001600160e01b03199091168152602001610129565b6101a06040518060400160405280600b81526020016a0c19d7dd1bdad95b97da5960aa1b81525081565b61022461031c366004611276565b6105f3565b6101a060405180604001604052806006815260200165736b696c6c7360d01b81525081565b6102cb6103543660046112e5565b63f23a6e6160e01b9695505050505050565b6102247f000000000000000000000000000000000000000000000000000000000000000081565b5f6301ffc9a760e01b6001600160e01b0319831614806103bd5750630271189760e51b6001600160e01b03198316145b92915050565b60606001805480602002602001604051908101604052809291908181526020015f905b828210156104c8578382905f5260205f2090600302016040518060600160405290815f820180546104169061135c565b80601f01602080910402602001604051908101604052809291908181526020018280546104429061135c565b801561048d5780601f106104645761010080835404028352916020019161048d565b820191905f5260205f20905b81548152906001019060200180831161047057829003601f168201915b50505091835250506001828101546020808401919091526002909301546001600160a01b0316604090920191909152918352920191016103e6565b50505050905090565b6001600160a01b0381165f90815260208181526040808320805482518185028101850190935280835260609492939192909184015b828210156105e8578382905f5260205f2090600302016040518060600160405290815f820180546105369061135c565b80601f01602080910402602001604051908101604052809291908181526020018280546105629061135c565b80156105ad5780601f10610584576101008083540402835291602001916105ad565b820191905f5260205f20905b81548152906001019060200180831161059057829003601f168201915b50505091835250506001828101546020808401919091526002909301546001600160a01b031660409092019190915291835292019101610506565b505050509050919050565b5f6105fe8484610ecc565b604051630178fe3f60e01b81527f000000000000000000000000000000000000000000000000000000000000000060048201525f9081907f00000000000000000000000000000000000000000000000000000000000000006001600160a01b031690630178fe3f90602401606060405180830381865afa158015610684573d5f5f3e3d5ffd5b505050506040513d601f19601f820116820180604052508101906106a89190611394565b60405163e985e9c560e01b81526001600160a01b0380851660048301523060248301529395509093507f00000000000000000000000000000000000000000000000000000000000000009092169163e985e9c59150604401602060405180830381865afa15801561071b573d5f5f3e3d5ffd5b505050506040513d601f19601f8201168201806040525081019061073f91906113e7565b61075c5760405163bcedfd2360e01b815260040160405180910390fd5b6040516309306bd160e21b81526001600160a01b037f000000000000000000000000000000000000000000000000000000000000000016906324c1af44906107f6907f0000000000000000000000000000000000000000000000000000000000000000908a908a9030907f0000000000000000000000000000000000000000000000000000000000000000905f9081908b9060040161142e565b6020604051808303815f875af1158015610812573d5f5f3e3d5ffd5b505050506040513d601f19601f820116820180604052508101906108369190611490565b60408051808201909152600a81526961786c5f7075626b657960b01b60208201529093506001600160a01b037f000000000000000000000000000000000000000000000000000000000000000016906310f13a8c90859061089788806114a7565b6040518563ffffffff1660e01b81526004016108b694939291906114ea565b5f604051808303815f87803b1580156108cd575f5ffd5b505af11580156108df573d5f5f3e3d5ffd5b505050507f00000000000000000000000000000000000000000000000000000000000000006001600160a01b03166310f13a8c8460405180604001604052806006815260200165736b696c6c7360d01b81525087806020019061094291906114a7565b6040518563ffffffff1660e01b815260040161096194939291906114ea565b5f604051808303815f87803b158015610978575f5ffd5b505af115801561098a573d5f5f3e3d5ffd5b5050604080518082018252601081526f30675f776f726b73706163655f75726960801b60208201526001600160a01b037f00000000000000000000000000000000000000000000000000000000000000001693506310f13a8c925086916109f3908901896114a7565b6040518563ffffffff1660e01b8152600401610a1294939291906114ea565b5f604051808303815f87803b158015610a29575f5ffd5b505af1158015610a3b573d5f5f3e3d5ffd5b505050507f00000000000000000000000000000000000000000000000000000000000000006001600160a01b03166310f13a8c846040518060400160405280600b81526020016a0c19d7dd1bdad95b97da5960aa1b815250878060600190610aa391906114a7565b6040518563ffffffff1660e01b8152600401610ac294939291906114ea565b5f604051808303815f87803b158015610ad9575f5ffd5b505af1158015610aeb573d5f5f3e3d5ffd5b505050507f00000000000000000000000000000000000000000000000000000000000000006001600160a01b03166310f13a8c8460405180604001604052806005815260200164707269636560d81b815250878060800190610b4d91906114a7565b6040518563ffffffff1660e01b8152600401610b6c94939291906114ea565b5f604051808303815f87803b158015610b83575f5ffd5b505af1158015610b95573d5f5f3e3d5ffd5b505050507f00000000000000000000000000000000000000000000000000000000000000006001600160a01b03166310f13a8c84604051806040016040528060078152602001663b32b939b4b7b760c91b815250878060a00190610bf991906114a7565b6040518563ffffffff1660e01b8152600401610c1894939291906114ea565b5f604051808303815f87803b158015610c2f575f5ffd5b505af1158015610c41573d5f5f3e3d5ffd5b505060405162d5fa2b60e81b8152600481018690523360248201527f00000000000000000000000000000000000000000000000000000000000000006001600160a01b0316925063d5fa2b0091506044015f604051808303815f87803b158015610ca9575f5ffd5b505af1158015610cbb573d5f5f3e3d5ffd5b5050604051637921219560e11b8152306004820152336024820152604481018690526001606482015260a060848201525f60a48201527f00000000000000000000000000000000000000000000000000000000000000006001600160a01b0316925063f242432a915060c4015f604051808303815f87803b158015610d3e575f5ffd5b505af1158015610d50573d5f5f3e3d5ffd5b505050505f604051806060016040528088888080601f0160208091040260200160405190810160405280939291908181526020018383808284375f92018290525093855250505060208083018890523360409384018190528252818152918120805460018101825590825291902082519293508392600390920201908190610dd8908261157d565b506020820151600180830191909155604090920151600290910180546001600160a01b039092166001600160a01b0319909216919091179055805480820182555f91909152815182916003027fb10e2d527612073b26eecdfd717e6a320cf44b4afac2b0732d9fcbe2b7fa0cf601908190610e53908261157d565b5060208201516001820155604091820151600290910180546001600160a01b0319166001600160a01b0390921691909117905551339085907f645ab9ff5e1e03211449ee714a425ea6f465d9c20d13976b80a0ae3c8387c74790610eba908b908b90611638565b60405180910390a35050509392505050565b5f82828080601f0160208091040260200160405190810160405280939291908181526020018383808284375f920191909152505082519293505060038210905080610f175750603f81115b15610f3557604051633d36cb8d60e01b815260040160405180910390fd5b5f5b81811015610ffa575f838281518110610f5257610f52611653565b01602001516001600160f81b03191690505f606160f81b8210801590610f865750603d60f91b6001600160f81b0319831611155b80610fb85750600360fc1b6001600160f81b0319831610801590610fb85750603960f81b6001600160f81b0319831611155b80610fd05750602d60f81b6001600160f81b03198316145b905080610ff057604051633d36cb8d60e01b815260040160405180910390fd5b5050600101610f37565b5050505050565b5f60208284031215611011575f5ffd5b81356001600160e01b031981168114611028575f5ffd5b9392505050565b5f81518084528060208401602086015e5f602082860101526020601f19601f83011685010191505092915050565b602081525f611028602083018461102f565b5f602082016020835280845180835260408501915060408160051b8601019250602086015f5b828110156110ef57603f1987860301845281518051606087526110bb606088018261102f565b602083810151898201526040938401516001600160a01b031693909801929092525094938401939190910190600101611095565b50929695505050505050565b6001600160a01b038116811461110f575f5ffd5b50565b5f60208284031215611122575f5ffd5b8135611028816110fb565b5f5f83601f84011261113d575f5ffd5b50813567ffffffffffffffff811115611154575f5ffd5b6020830191508360208260051b850101111561116e575f5ffd5b9250929050565b5f5f83601f840112611185575f5ffd5b50813567ffffffffffffffff81111561119c575f5ffd5b60208301915083602082850101111561116e575f5ffd5b5f5f5f5f5f5f5f5f60a0898b0312156111ca575f5ffd5b88356111d5816110fb565b975060208901356111e5816110fb565b9650604089013567ffffffffffffffff811115611200575f5ffd5b61120c8b828c0161112d565b909750955050606089013567ffffffffffffffff81111561122b575f5ffd5b6112378b828c0161112d565b909550935050608089013567ffffffffffffffff811115611256575f5ffd5b6112628b828c01611175565b999c989b5096995094979396929594505050565b5f5f5f60408486031215611288575f5ffd5b833567ffffffffffffffff81111561129e575f5ffd5b6112aa86828701611175565b909450925050602084013567ffffffffffffffff8111156112c9575f5ffd5b840160c081870312156112da575f5ffd5b809150509250925092565b5f5f5f5f5f5f60a087890312156112fa575f5ffd5b8635611305816110fb565b95506020870135611315816110fb565b94506040870135935060608701359250608087013567ffffffffffffffff81111561133e575f5ffd5b61134a89828a01611175565b979a9699509497509295939492505050565b600181811c9082168061137057607f821691505b60208210810361138e57634e487b7160e01b5f52602260045260245ffd5b50919050565b5f5f5f606084860312156113a6575f5ffd5b83516113b1816110fb565b602085015190935063ffffffff811681146113ca575f5ffd5b604085015190925067ffffffffffffffff811681146112da575f5ffd5b5f602082840312156113f7575f5ffd5b81518015158114611028575f5ffd5b81835281816020850137505f828201602090810191909152601f909101601f19169091010190565b88815260e060208201525f61144760e08301898b611406565b6001600160a01b03978816604084015295909616606082015267ffffffffffffffff938416608082015263ffffffff9290921660a083015290911660c090910152949350505050565b5f602082840312156114a0575f5ffd5b5051919050565b5f5f8335601e198436030181126114bc575f5ffd5b83018035915067ffffffffffffffff8211156114d6575f5ffd5b60200191503681900382131561116e575f5ffd5b848152606060208201525f611502606083018661102f565b8281036040840152611515818587611406565b979650505050505050565b634e487b7160e01b5f52604160045260245ffd5b601f82111561157857805f5260205f20601f840160051c810160208510156115595750805b601f840160051c820191505b81811015610ffa575f8155600101611565565b505050565b815167ffffffffffffffff81111561159757611597611520565b6115ab816115a5845461135c565b84611534565b6020601f8211600181146115dd575f83156115c65750848201515b5f19600385901b1c1916600184901b178455610ffa565b5f84815260208120601f198516915b8281101561160c57878501518255602094850194600190920191016115ec565b508482101561162957868401515f19600387901b60f8161c191681555b50505050600190811b01905550565b602081525f61164b602083018486611406565b949350505050565b634e487b7160e01b5f52603260045260245ffdfea2646970667358221220084cc8baaae9889a1e54a844af48eacd09aa8cdb85bffbf9e73e02c3c4e4c9c464736f6c634300081c0033",
  "linkReferences": {},
  "deployedLinkReferences": {},
  "immutableReferences": {
    "75": [
      {
        "length": 32,
        "start": 607
      },
      {
        "length": 32,
        "start": 1591
      },
      {
        "length": 32,
        "start": 1747
      },
      {
        "length": 32,
        "start": 1907
      },
      {
        "length": 32,
        "start": 3315
      }
    ],
    "78": [
      {
        "length": 32,
        "start": 311
      },
      {
        "length": 32,
        "start": 1992
      },
      {
        "length": 32,
        "start": 2148
      },
      {
        "length": 32,
        "start": 2277
      },
      {
        "length": 32,
        "start": 2492
      },
      {
        "length": 32,
        "start": 2625
      },
      {
        "length": 32,
        "start": 2801
      },
      {
        "length": 32,
        "start": 2971
      },
      {
        "length": 32,
        "start": 3166
      }
    ],
    "80": [
      {
        "length": 32,
        "start": 875
      },
      {
        "length": 32,
        "start": 1549
      },
      {
        "length": 32,
        "start": 1952
      }
    ]
  },
  "inputSourceName": "project/contracts/SpecialistRegistrar.sol",
  "buildInfoId": "solc-0_8_28-e862f52f53415b83fb4426daa03337e3694824ad"
}